{
	"hello.sol": {
		"OddNumberCalculator": {
			"abi": [
				{
					"anonymous": false,
					"inputs": [
						{
							"indexed": false,
							"internalType": "string",
							"name": "reason",
							"type": "string"
						}
					],
					"name": "ExternalCallFailed",
					"type": "event"
				},
				{
					"anonymous": false,
					"inputs": [
						{
							"indexed": false,
							"internalType": "bytes",
							"name": "lowLevelData",
							"type": "bytes"
						}
					],
					"name": "LowLevelCallFailed",
					"type": "event"
				},
				{
					"inputs": [
						{
							"internalType": "address",
							"name": "targetContract",
							"type": "address"
						},
						{
							"internalType": "bytes",
							"name": "data",
							"type": "bytes"
						}
					],
					"name": "externalCall",
					"outputs": [
						{
							"internalType": "bytes",
							"name": "",
							"type": "bytes"
						}
					],
					"stateMutability": "nonpayable",
					"type": "function"
				},
				{
					"inputs": [
						{
							"internalType": "address",
							"name": "targetContract",
							"type": "address"
						},
						{
							"internalType": "bytes",
							"name": "data",
							"type": "bytes"
						}
					],
					"name": "safeExternalCall",
					"outputs": [
						{
							"internalType": "bool",
							"name": "success",
							"type": "bool"
						},
						{
							"internalType": "bytes",
							"name": "result",
							"type": "bytes"
						}
					],
					"stateMutability": "nonpayable",
					"type": "function"
				},
				{
					"inputs": [
						{
							"internalType": "uint256",
							"name": "n",
							"type": "uint256"
						}
					],
					"name": "sumOddNumbers",
					"outputs": [
						{
							"internalType": "uint256",
							"name": "",
							"type": "uint256"
						}
					],
					"stateMutability": "pure",
					"type": "function"
				}
			],
			"devdoc": {
				"kind": "dev",
				"methods": {
					"externalCall(address,bytes)": {
						"details": "实际执行外部调用的内部函数"
					},
					"safeExternalCall(address,bytes)": {
						"details": "安全调用外部合约的函数，使用try/catch处理异常",
						"params": {
							"data": "调用数据",
							"targetContract": "目标合约地址"
						},
						"returns": {
							"result": "调用结果（如果成功）",
							"success": "是否调用成功"
						}
					},
					"sumOddNumbers(uint256)": {
						"details": "计算1到n的所有奇数和",
						"params": {
							"n": "上限数字"
						},
						"returns": {
							"_0": "奇数和"
						}
					}
				},
				"version": 1
			},
			"evm": {
				"assembly": "    /* \"hello.sol\":61:2034  contract OddNumberCalculator {... */\n  mstore(0x40, 0x80)\n  callvalue\n  dup1\n  iszero\n  tag_1\n  jumpi\n  revert(0x00, 0x00)\ntag_1:\n  pop\n  dataSize(sub_0)\n  dup1\n  dataOffset(sub_0)\n  0x00\n  codecopy\n  0x00\n  return\nstop\n\nsub_0: assembly {\n        /* \"hello.sol\":61:2034  contract OddNumberCalculator {... */\n      mstore(0x40, 0x80)\n      callvalue\n      dup1\n      iszero\n      tag_1\n      jumpi\n      revert(0x00, 0x00)\n    tag_1:\n      pop\n      jumpi(tag_2, lt(calldatasize, 0x04))\n      shr(0xe0, calldataload(0x00))\n      dup1\n      0x654c9bdb\n      eq\n      tag_3\n      jumpi\n      dup1\n      0x6c74f207\n      eq\n      tag_4\n      jumpi\n      dup1\n      0xd9a92e69\n      eq\n      tag_5\n      jumpi\n    tag_2:\n      revert(0x00, 0x00)\n        /* \"hello.sol\":1606:1895  function externalCall(... */\n    tag_3:\n      tag_6\n      0x04\n      dup1\n      calldatasize\n      sub\n      dup2\n      add\n      swap1\n      tag_7\n      swap2\n      swap1\n      tag_8\n      jump\t// in\n    tag_7:\n      tag_9\n      jump\t// in\n    tag_6:\n      mload(0x40)\n      tag_10\n      swap2\n      swap1\n      tag_11\n      jump\t// in\n    tag_10:\n      mload(0x40)\n      dup1\n      swap2\n      sub\n      swap1\n      return\n        /* \"hello.sol\":218:544  function sumOddNumbers(uint256 n) public pure returns (uint256) {... */\n    tag_4:\n      tag_12\n      0x04\n      dup1\n      calldatasize\n      sub\n      dup2\n      add\n      swap1\n      tag_13\n      swap2\n      swap1\n      tag_14\n      jump\t// in\n    tag_13:\n      tag_15\n      jump\t// in\n    tag_12:\n      mload(0x40)\n      tag_16\n      swap2\n      swap1\n      tag_17\n      jump\t// in\n    tag_16:\n      mload(0x40)\n      dup1\n      swap2\n      sub\n      swap1\n      return\n        /* \"hello.sol\":824:1523  function safeExternalCall(... */\n    tag_5:\n      tag_18\n      0x04\n      dup1\n      calldatasize\n      sub\n      dup2\n      add\n      swap1\n      tag_19\n      swap2\n      swap1\n      tag_8\n      jump\t// in\n    tag_19:\n      tag_20\n      jump\t// in\n    tag_18:\n      mload(0x40)\n      tag_21\n      swap3\n      swap2\n      swap1\n      tag_22\n      jump\t// in\n    tag_21:\n      mload(0x40)\n      dup1\n      swap2\n      sub\n      swap1\n      return\n        /* \"hello.sol\":1606:1895  function externalCall(... */\n    tag_9:\n        /* \"hello.sol\":1714:1726  bytes memory */\n      0x60\n        /* \"hello.sol\":1740:1752  bool success */\n      0x00\n        /* \"hello.sol\":1754:1773  bytes memory result */\n      0x00\n        /* \"hello.sol\":1777:1791  targetContract */\n      dup5\n        /* \"hello.sol\":1777:1796  targetContract.call */\n      0xffffffffffffffffffffffffffffffffffffffff\n      and\n        /* \"hello.sol\":1797:1801  data */\n      dup5\n        /* \"hello.sol\":1777:1802  targetContract.call(data) */\n      mload(0x40)\n      tag_24\n      swap2\n      swap1\n      tag_25\n      jump\t// in\n    tag_24:\n      0x00\n      mload(0x40)\n      dup1\n      dup4\n      sub\n      dup2\n      0x00\n      dup7\n      gas\n      call\n      swap2\n      pop\n      pop\n      returndatasize\n      dup1\n      0x00\n      dup2\n      eq\n      tag_28\n      jumpi\n      mload(0x40)\n      swap2\n      pop\n      and(add(returndatasize, 0x3f), not(0x1f))\n      dup3\n      add\n      0x40\n      mstore\n      returndatasize\n      dup3\n      mstore\n      returndatasize\n      0x00\n      0x20\n      dup5\n      add\n      returndatacopy\n      jump(tag_27)\n    tag_28:\n      0x60\n      swap2\n      pop\n    tag_27:\n      pop\n        /* \"hello.sol\":1739:1802  (bool success, bytes memory result) = targetContract.call(data) */\n      swap2\n      pop\n      swap2\n      pop\n        /* \"hello.sol\":1831:1838  success */\n      dup2\n        /* \"hello.sol\":1823:1863  require(success, \"External call failed\") */\n      tag_29\n      jumpi\n      mload(0x40)\n      0x08c379a000000000000000000000000000000000000000000000000000000000\n      dup2\n      mstore\n      0x04\n      add\n      tag_30\n      swap1\n      tag_31\n      jump\t// in\n    tag_30:\n      mload(0x40)\n      dup1\n      swap2\n      sub\n      swap1\n      revert\n    tag_29:\n        /* \"hello.sol\":1881:1887  result */\n      dup1\n        /* \"hello.sol\":1874:1887  return result */\n      swap3\n      pop\n      pop\n      pop\n        /* \"hello.sol\":1606:1895  function externalCall(... */\n      swap3\n      swap2\n      pop\n      pop\n      jump\t// out\n        /* \"hello.sol\":218:544  function sumOddNumbers(uint256 n) public pure returns (uint256) {... */\n    tag_15:\n        /* \"hello.sol\":273:280  uint256 */\n      0x00\n        /* \"hello.sol\":305:306  0 */\n      0x00\n        /* \"hello.sol\":301:302  n */\n      dup3\n        /* \"hello.sol\":301:306  n > 0 */\n      gt\n        /* \"hello.sol\":293:335  require(n > 0, \"n must be greater than 0\") */\n      tag_33\n      jumpi\n      mload(0x40)\n      0x08c379a000000000000000000000000000000000000000000000000000000000\n      dup2\n      mstore\n      0x04\n      add\n      tag_34\n      swap1\n      tag_35\n      jump\t// in\n    tag_34:\n      mload(0x40)\n      dup1\n      swap2\n      sub\n      swap1\n      revert\n    tag_33:\n        /* \"hello.sol\":356:367  uint256 sum */\n      0x00\n        /* \"hello.sol\":370:371  0 */\n      0x00\n        /* \"hello.sol\":356:371  uint256 sum = 0 */\n      swap1\n      pop\n        /* \"hello.sol\":440:449  uint256 i */\n      0x00\n        /* \"hello.sol\":452:453  1 */\n      0x01\n        /* \"hello.sol\":440:453  uint256 i = 1 */\n      swap1\n      pop\n        /* \"hello.sol\":435:506  for (uint256 i = 1; i <= n; i += 2) {... */\n    tag_36:\n        /* \"hello.sol\":460:461  n */\n      dup4\n        /* \"hello.sol\":455:456  i */\n      dup2\n        /* \"hello.sol\":455:461  i <= n */\n      gt\n        /* \"hello.sol\":435:506  for (uint256 i = 1; i <= n; i += 2) {... */\n      tag_37\n      jumpi\n        /* \"hello.sol\":493:494  i */\n      dup1\n        /* \"hello.sol\":486:494  sum += i */\n      dup3\n      tag_39\n      swap2\n      swap1\n      tag_40\n      jump\t// in\n    tag_39:\n      swap2\n      pop\n        /* \"hello.sol\":468:469  2 */\n      0x02\n        /* \"hello.sol\":463:469  i += 2 */\n      dup2\n      tag_41\n      swap2\n      swap1\n      tag_40\n      jump\t// in\n    tag_41:\n      swap1\n      pop\n        /* \"hello.sol\":435:506  for (uint256 i = 1; i <= n; i += 2) {... */\n      jump(tag_36)\n    tag_37:\n      pop\n        /* \"hello.sol\":533:536  sum */\n      dup1\n        /* \"hello.sol\":526:536  return sum */\n      swap2\n      pop\n      pop\n        /* \"hello.sol\":218:544  function sumOddNumbers(uint256 n) public pure returns (uint256) {... */\n      swap2\n      swap1\n      pop\n      jump\t// out\n        /* \"hello.sol\":824:1523  function safeExternalCall(... */\n    tag_20:\n        /* \"hello.sol\":934:946  bool success */\n      0x00\n        /* \"hello.sol\":948:967  bytes memory result */\n      0x60\n        /* \"hello.sol\":1030:1034  this */\n      address\n        /* \"hello.sol\":1030:1047  this.externalCall */\n      0xffffffffffffffffffffffffffffffffffffffff\n      and\n      0x654c9bdb\n        /* \"hello.sol\":1048:1062  targetContract */\n      dup6\n        /* \"hello.sol\":1064:1068  data */\n      dup6\n        /* \"hello.sol\":1030:1069  this.externalCall(targetContract, data) */\n      mload(0x40)\n      dup4\n      0xffffffff\n      and\n      0xe0\n      shl\n      dup2\n      mstore\n      0x04\n      add\n      tag_43\n      swap3\n      swap2\n      swap1\n      tag_44\n      jump\t// in\n    tag_43:\n      0x00\n      mload(0x40)\n      dup1\n      dup4\n      sub\n      dup2\n      0x00\n      dup8\n      gas\n      call\n      swap3\n      pop\n      pop\n      pop\n      dup1\n      iszero\n      tag_45\n      jumpi\n      pop\n      mload(0x40)\n      returndatasize\n      0x00\n      dup3\n      returndatacopy\n      returndatasize\n      not(0x1f)\n      0x1f\n      dup3\n      add\n      and\n      dup3\n      add\n      dup1\n      0x40\n      mstore\n      pop\n      dup2\n      add\n      swap1\n      tag_46\n      swap2\n      swap1\n      tag_47\n      jump\t// in\n    tag_46:\n      0x01\n    tag_45:\n        /* \"hello.sol\":1026:1516  try this.externalCall(targetContract, data) returns (bytes memory _result) {... */\n      tag_48\n      jumpi\n      tag_52\n      tag_53\n      jump\t// in\n    tag_52:\n      dup1\n      0x08c379a0\n      sub\n      tag_51\n      jumpi\n      pop\n      tag_54\n      tag_55\n      jump\t// in\n    tag_54:\n      dup1\n      tag_56\n      jumpi\n      pop\n      jump(tag_50)\n    tag_56:\n        /* \"hello.sol\":1257:1283  ExternalCallFailed(reason) */\n      0x8c69e2b640cfe0784f7f54b2b09d1e1ddf6773a73a01a049c289170b071129b8\n        /* \"hello.sol\":1276:1282  reason */\n      dup2\n        /* \"hello.sol\":1257:1283  ExternalCallFailed(reason) */\n      mload(0x40)\n      tag_57\n      swap2\n      swap1\n      tag_58\n      jump\t// in\n    tag_57:\n      mload(0x40)\n      dup1\n      swap2\n      sub\n      swap1\n      log1\n        /* \"hello.sol\":1306:1311  false */\n      0x00\n        /* \"hello.sol\":1319:1325  reason */\n      dup2\n        /* \"hello.sol\":1298:1327  return (false, bytes(reason)) */\n      swap3\n      pop\n      swap3\n      pop\n      pop\n      jump(tag_42)\n        /* \"hello.sol\":1026:1516  try this.externalCall(targetContract, data) returns (bytes memory _result) {... */\n    tag_51:\n      pop\n    tag_50:\n      returndatasize\n      dup1\n      0x00\n      dup2\n      eq\n      tag_60\n      jumpi\n      mload(0x40)\n      swap2\n      pop\n      and(add(returndatasize, 0x3f), not(0x1f))\n      dup3\n      add\n      0x40\n      mstore\n      returndatasize\n      dup3\n      mstore\n      returndatasize\n      0x00\n      0x20\n      dup5\n      add\n      returndatacopy\n      jump(tag_59)\n    tag_60:\n      0x60\n      swap2\n      pop\n    tag_59:\n      pop\n        /* \"hello.sol\":1429:1461  LowLevelCallFailed(lowLevelData) */\n      0xb8fe37a7fe126cb6fddc823787324498b9aa36d4b9e0309b79e3fc3a99003661\n        /* \"hello.sol\":1448:1460  lowLevelData */\n      dup2\n        /* \"hello.sol\":1429:1461  LowLevelCallFailed(lowLevelData) */\n      mload(0x40)\n      tag_61\n      swap2\n      swap1\n      tag_11\n      jump\t// in\n    tag_61:\n      mload(0x40)\n      dup1\n      swap2\n      sub\n      swap1\n      log1\n        /* \"hello.sol\":1484:1489  false */\n      0x00\n        /* \"hello.sol\":1491:1503  lowLevelData */\n      dup2\n        /* \"hello.sol\":1476:1504  return (false, lowLevelData) */\n      swap3\n      pop\n      swap3\n      pop\n      pop\n      jump(tag_42)\n        /* \"hello.sol\":1026:1516  try this.externalCall(targetContract, data) returns (bytes memory _result) {... */\n    tag_48:\n        /* \"hello.sol\":1124:1128  true */\n      0x01\n        /* \"hello.sol\":1130:1137  _result */\n      dup2\n        /* \"hello.sol\":1116:1138  return (true, _result) */\n      swap3\n      pop\n      swap3\n      pop\n      pop\n        /* \"hello.sol\":824:1523  function safeExternalCall(... */\n    tag_42:\n      swap3\n      pop\n      swap3\n      swap1\n      pop\n      jump\t// out\n        /* \"#utility.yul\":7:82   */\n    tag_63:\n        /* \"#utility.yul\":40:46   */\n      0x00\n        /* \"#utility.yul\":73:75   */\n      0x40\n        /* \"#utility.yul\":67:76   */\n      mload\n        /* \"#utility.yul\":57:76   */\n      swap1\n      pop\n        /* \"#utility.yul\":7:82   */\n      swap1\n      jump\t// out\n        /* \"#utility.yul\":88:205   */\n    tag_64:\n        /* \"#utility.yul\":197:198   */\n      0x00\n        /* \"#utility.yul\":194:195   */\n      0x00\n        /* \"#utility.yul\":187:199   */\n      revert\n        /* \"#utility.yul\":211:328   */\n    tag_65:\n        /* \"#utility.yul\":320:321   */\n      0x00\n        /* \"#utility.yul\":317:318   */\n      0x00\n        /* \"#utility.yul\":310:322   */\n      revert\n        /* \"#utility.yul\":334:460   */\n    tag_66:\n        /* \"#utility.yul\":371:378   */\n      0x00\n        /* \"#utility.yul\":411:453   */\n      0xffffffffffffffffffffffffffffffffffffffff\n        /* \"#utility.yul\":404:409   */\n      dup3\n        /* \"#utility.yul\":400:454   */\n      and\n        /* \"#utility.yul\":389:454   */\n      swap1\n      pop\n        /* \"#utility.yul\":334:460   */\n      swap2\n      swap1\n      pop\n      jump\t// out\n        /* \"#utility.yul\":466:562   */\n    tag_67:\n        /* \"#utility.yul\":503:510   */\n      0x00\n        /* \"#utility.yul\":532:556   */\n      tag_110\n        /* \"#utility.yul\":550:555   */\n      dup3\n        /* \"#utility.yul\":532:556   */\n      tag_66\n      jump\t// in\n    tag_110:\n        /* \"#utility.yul\":521:556   */\n      swap1\n      pop\n        /* \"#utility.yul\":466:562   */\n      swap2\n      swap1\n      pop\n      jump\t// out\n        /* \"#utility.yul\":568:690   */\n    tag_68:\n        /* \"#utility.yul\":641:665   */\n      tag_112\n        /* \"#utility.yul\":659:664   */\n      dup2\n        /* \"#utility.yul\":641:665   */\n      tag_67\n      jump\t// in\n    tag_112:\n        /* \"#utility.yul\":634:639   */\n      dup2\n        /* \"#utility.yul\":631:666   */\n      eq\n        /* \"#utility.yul\":621:684   */\n      tag_113\n      jumpi\n        /* \"#utility.yul\":680:681   */\n      0x00\n        /* \"#utility.yul\":677:678   */\n      0x00\n        /* \"#utility.yul\":670:682   */\n      revert\n        /* \"#utility.yul\":621:684   */\n    tag_113:\n        /* \"#utility.yul\":568:690   */\n      pop\n      jump\t// out\n        /* \"#utility.yul\":696:835   */\n    tag_69:\n        /* \"#utility.yul\":742:747   */\n      0x00\n        /* \"#utility.yul\":780:786   */\n      dup2\n        /* \"#utility.yul\":767:787   */\n      calldataload\n        /* \"#utility.yul\":758:787   */\n      swap1\n      pop\n        /* \"#utility.yul\":796:829   */\n      tag_115\n        /* \"#utility.yul\":823:828   */\n      dup2\n        /* \"#utility.yul\":796:829   */\n      tag_68\n      jump\t// in\n    tag_115:\n        /* \"#utility.yul\":696:835   */\n      swap3\n      swap2\n      pop\n      pop\n      jump\t// out\n        /* \"#utility.yul\":841:958   */\n    tag_70:\n        /* \"#utility.yul\":950:951   */\n      0x00\n        /* \"#utility.yul\":947:948   */\n      0x00\n        /* \"#utility.yul\":940:952   */\n      revert\n        /* \"#utility.yul\":964:1081   */\n    tag_71:\n        /* \"#utility.yul\":1073:1074   */\n      0x00\n        /* \"#utility.yul\":1070:1071   */\n      0x00\n        /* \"#utility.yul\":1063:1075   */\n      revert\n        /* \"#utility.yul\":1087:1189   */\n    tag_72:\n        /* \"#utility.yul\":1128:1134   */\n      0x00\n        /* \"#utility.yul\":1179:1181   */\n      0x1f\n        /* \"#utility.yul\":1175:1182   */\n      not\n        /* \"#utility.yul\":1170:1172   */\n      0x1f\n        /* \"#utility.yul\":1163:1168   */\n      dup4\n        /* \"#utility.yul\":1159:1173   */\n      add\n        /* \"#utility.yul\":1155:1183   */\n      and\n        /* \"#utility.yul\":1145:1183   */\n      swap1\n      pop\n        /* \"#utility.yul\":1087:1189   */\n      swap2\n      swap1\n      pop\n      jump\t// out\n        /* \"#utility.yul\":1195:1375   */\n    tag_73:\n        /* \"#utility.yul\":1243:1320   */\n      0x4e487b7100000000000000000000000000000000000000000000000000000000\n        /* \"#utility.yul\":1240:1241   */\n      0x00\n        /* \"#utility.yul\":1233:1321   */\n      mstore\n        /* \"#utility.yul\":1340:1344   */\n      0x41\n        /* \"#utility.yul\":1337:1338   */\n      0x04\n        /* \"#utility.yul\":1330:1345   */\n      mstore\n        /* \"#utility.yul\":1364:1368   */\n      0x24\n        /* \"#utility.yul\":1361:1362   */\n      0x00\n        /* \"#utility.yul\":1354:1369   */\n      revert\n        /* \"#utility.yul\":1381:1662   */\n    tag_74:\n        /* \"#utility.yul\":1464:1491   */\n      tag_121\n        /* \"#utility.yul\":1486:1490   */\n      dup3\n        /* \"#utility.yul\":1464:1491   */\n      tag_72\n      jump\t// in\n    tag_121:\n        /* \"#utility.yul\":1456:1462   */\n      dup2\n        /* \"#utility.yul\":1452:1492   */\n      add\n        /* \"#utility.yul\":1594:1600   */\n      dup2\n        /* \"#utility.yul\":1582:1592   */\n      dup2\n        /* \"#utility.yul\":1579:1601   */\n      lt\n        /* \"#utility.yul\":1558:1576   */\n      0xffffffffffffffff\n        /* \"#utility.yul\":1546:1556   */\n      dup3\n        /* \"#utility.yul\":1543:1577   */\n      gt\n        /* \"#utility.yul\":1540:1602   */\n      or\n        /* \"#utility.yul\":1537:1625   */\n      iszero\n      tag_122\n      jumpi\n        /* \"#utility.yul\":1605:1623   */\n      tag_123\n      tag_73\n      jump\t// in\n    tag_123:\n        /* \"#utility.yul\":1537:1625   */\n    tag_122:\n        /* \"#utility.yul\":1645:1655   */\n      dup1\n        /* \"#utility.yul\":1641:1643   */\n      0x40\n        /* \"#utility.yul\":1634:1656   */\n      mstore\n        /* \"#utility.yul\":1424:1662   */\n      pop\n        /* \"#utility.yul\":1381:1662   */\n      pop\n      pop\n      jump\t// out\n        /* \"#utility.yul\":1668:1797   */\n    tag_75:\n        /* \"#utility.yul\":1702:1708   */\n      0x00\n        /* \"#utility.yul\":1729:1749   */\n      tag_125\n      tag_63\n      jump\t// in\n    tag_125:\n        /* \"#utility.yul\":1719:1749   */\n      swap1\n      pop\n        /* \"#utility.yul\":1758:1791   */\n      tag_126\n        /* \"#utility.yul\":1786:1790   */\n      dup3\n        /* \"#utility.yul\":1778:1784   */\n      dup3\n        /* \"#utility.yul\":1758:1791   */\n      tag_74\n      jump\t// in\n    tag_126:\n        /* \"#utility.yul\":1668:1797   */\n      swap2\n      swap1\n      pop\n      jump\t// out\n        /* \"#utility.yul\":1803:2110   */\n    tag_76:\n        /* \"#utility.yul\":1864:1868   */\n      0x00\n        /* \"#utility.yul\":1954:1972   */\n      0xffffffffffffffff\n        /* \"#utility.yul\":1946:1952   */\n      dup3\n        /* \"#utility.yul\":1943:1973   */\n      gt\n        /* \"#utility.yul\":1940:1996   */\n      iszero\n      tag_128\n      jumpi\n        /* \"#utility.yul\":1976:1994   */\n      tag_129\n      tag_73\n      jump\t// in\n    tag_129:\n        /* \"#utility.yul\":1940:1996   */\n    tag_128:\n        /* \"#utility.yul\":2014:2043   */\n      tag_130\n        /* \"#utility.yul\":2036:2042   */\n      dup3\n        /* \"#utility.yul\":2014:2043   */\n      tag_72\n      jump\t// in\n    tag_130:\n        /* \"#utility.yul\":2006:2043   */\n      swap1\n      pop\n        /* \"#utility.yul\":2098:2102   */\n      0x20\n        /* \"#utility.yul\":2092:2096   */\n      dup2\n        /* \"#utility.yul\":2088:2103   */\n      add\n        /* \"#utility.yul\":2080:2103   */\n      swap1\n      pop\n        /* \"#utility.yul\":1803:2110   */\n      swap2\n      swap1\n      pop\n      jump\t// out\n        /* \"#utility.yul\":2116:2264   */\n    tag_77:\n        /* \"#utility.yul\":2214:2220   */\n      dup3\n        /* \"#utility.yul\":2209:2212   */\n      dup2\n        /* \"#utility.yul\":2204:2207   */\n      dup4\n        /* \"#utility.yul\":2191:2221   */\n      calldatacopy\n        /* \"#utility.yul\":2255:2256   */\n      0x00\n        /* \"#utility.yul\":2246:2252   */\n      dup4\n        /* \"#utility.yul\":2241:2244   */\n      dup4\n        /* \"#utility.yul\":2237:2253   */\n      add\n        /* \"#utility.yul\":2230:2257   */\n      mstore\n        /* \"#utility.yul\":2116:2264   */\n      pop\n      pop\n      pop\n      jump\t// out\n        /* \"#utility.yul\":2270:2693   */\n    tag_78:\n        /* \"#utility.yul\":2347:2352   */\n      0x00\n        /* \"#utility.yul\":2372:2437   */\n      tag_133\n        /* \"#utility.yul\":2388:2436   */\n      tag_134\n        /* \"#utility.yul\":2429:2435   */\n      dup5\n        /* \"#utility.yul\":2388:2436   */\n      tag_76\n      jump\t// in\n    tag_134:\n        /* \"#utility.yul\":2372:2437   */\n      tag_75\n      jump\t// in\n    tag_133:\n        /* \"#utility.yul\":2363:2437   */\n      swap1\n      pop\n        /* \"#utility.yul\":2460:2466   */\n      dup3\n        /* \"#utility.yul\":2453:2458   */\n      dup2\n        /* \"#utility.yul\":2446:2467   */\n      mstore\n        /* \"#utility.yul\":2498:2502   */\n      0x20\n        /* \"#utility.yul\":2491:2496   */\n      dup2\n        /* \"#utility.yul\":2487:2503   */\n      add\n        /* \"#utility.yul\":2536:2539   */\n      dup5\n        /* \"#utility.yul\":2527:2533   */\n      dup5\n        /* \"#utility.yul\":2522:2525   */\n      dup5\n        /* \"#utility.yul\":2518:2534   */\n      add\n        /* \"#utility.yul\":2515:2540   */\n      gt\n        /* \"#utility.yul\":2512:2624   */\n      iszero\n      tag_135\n      jumpi\n        /* \"#utility.yul\":2543:2622   */\n      tag_136\n      tag_71\n      jump\t// in\n    tag_136:\n        /* \"#utility.yul\":2512:2624   */\n    tag_135:\n        /* \"#utility.yul\":2633:2687   */\n      tag_137\n        /* \"#utility.yul\":2680:2686   */\n      dup5\n        /* \"#utility.yul\":2675:2678   */\n      dup3\n        /* \"#utility.yul\":2670:2673   */\n      dup6\n        /* \"#utility.yul\":2633:2687   */\n      tag_77\n      jump\t// in\n    tag_137:\n        /* \"#utility.yul\":2353:2693   */\n      pop\n        /* \"#utility.yul\":2270:2693   */\n      swap4\n      swap3\n      pop\n      pop\n      pop\n      jump\t// out\n        /* \"#utility.yul\":2712:3050   */\n    tag_79:\n        /* \"#utility.yul\":2767:2772   */\n      0x00\n        /* \"#utility.yul\":2816:2819   */\n      dup3\n        /* \"#utility.yul\":2809:2813   */\n      0x1f\n        /* \"#utility.yul\":2801:2807   */\n      dup4\n        /* \"#utility.yul\":2797:2814   */\n      add\n        /* \"#utility.yul\":2793:2820   */\n      slt\n        /* \"#utility.yul\":2783:2905   */\n      tag_139\n      jumpi\n        /* \"#utility.yul\":2824:2903   */\n      tag_140\n      tag_70\n      jump\t// in\n    tag_140:\n        /* \"#utility.yul\":2783:2905   */\n    tag_139:\n        /* \"#utility.yul\":2941:2947   */\n      dup2\n        /* \"#utility.yul\":2928:2948   */\n      calldataload\n        /* \"#utility.yul\":2966:3044   */\n      tag_141\n        /* \"#utility.yul\":3040:3043   */\n      dup5\n        /* \"#utility.yul\":3032:3038   */\n      dup3\n        /* \"#utility.yul\":3025:3029   */\n      0x20\n        /* \"#utility.yul\":3017:3023   */\n      dup7\n        /* \"#utility.yul\":3013:3030   */\n      add\n        /* \"#utility.yul\":2966:3044   */\n      tag_78\n      jump\t// in\n    tag_141:\n        /* \"#utility.yul\":2957:3044   */\n      swap2\n      pop\n        /* \"#utility.yul\":2773:3050   */\n      pop\n        /* \"#utility.yul\":2712:3050   */\n      swap3\n      swap2\n      pop\n      pop\n      jump\t// out\n        /* \"#utility.yul\":3056:3708   */\n    tag_8:\n        /* \"#utility.yul\":3133:3139   */\n      0x00\n        /* \"#utility.yul\":3141:3147   */\n      0x00\n        /* \"#utility.yul\":3190:3192   */\n      0x40\n        /* \"#utility.yul\":3178:3187   */\n      dup4\n        /* \"#utility.yul\":3169:3176   */\n      dup6\n        /* \"#utility.yul\":3165:3188   */\n      sub\n        /* \"#utility.yul\":3161:3193   */\n      slt\n        /* \"#utility.yul\":3158:3277   */\n      iszero\n      tag_143\n      jumpi\n        /* \"#utility.yul\":3196:3275   */\n      tag_144\n      tag_64\n      jump\t// in\n    tag_144:\n        /* \"#utility.yul\":3158:3277   */\n    tag_143:\n        /* \"#utility.yul\":3316:3317   */\n      0x00\n        /* \"#utility.yul\":3341:3394   */\n      tag_145\n        /* \"#utility.yul\":3386:3393   */\n      dup6\n        /* \"#utility.yul\":3377:3383   */\n      dup3\n        /* \"#utility.yul\":3366:3375   */\n      dup7\n        /* \"#utility.yul\":3362:3384   */\n      add\n        /* \"#utility.yul\":3341:3394   */\n      tag_69\n      jump\t// in\n    tag_145:\n        /* \"#utility.yul\":3331:3394   */\n      swap3\n      pop\n        /* \"#utility.yul\":3287:3404   */\n      pop\n        /* \"#utility.yul\":3471:3473   */\n      0x20\n        /* \"#utility.yul\":3460:3469   */\n      dup4\n        /* \"#utility.yul\":3456:3474   */\n      add\n        /* \"#utility.yul\":3443:3475   */\n      calldataload\n        /* \"#utility.yul\":3502:3520   */\n      0xffffffffffffffff\n        /* \"#utility.yul\":3494:3500   */\n      dup2\n        /* \"#utility.yul\":3491:3521   */\n      gt\n        /* \"#utility.yul\":3488:3605   */\n      iszero\n      tag_146\n      jumpi\n        /* \"#utility.yul\":3524:3603   */\n      tag_147\n      tag_65\n      jump\t// in\n    tag_147:\n        /* \"#utility.yul\":3488:3605   */\n    tag_146:\n        /* \"#utility.yul\":3629:3691   */\n      tag_148\n        /* \"#utility.yul\":3683:3690   */\n      dup6\n        /* \"#utility.yul\":3674:3680   */\n      dup3\n        /* \"#utility.yul\":3663:3672   */\n      dup7\n        /* \"#utility.yul\":3659:3681   */\n      add\n        /* \"#utility.yul\":3629:3691   */\n      tag_79\n      jump\t// in\n    tag_148:\n        /* \"#utility.yul\":3619:3691   */\n      swap2\n      pop\n        /* \"#utility.yul\":3414:3701   */\n      pop\n        /* \"#utility.yul\":3056:3708   */\n      swap3\n      pop\n      swap3\n      swap1\n      pop\n      jump\t// out\n        /* \"#utility.yul\":3714:3812   */\n    tag_80:\n        /* \"#utility.yul\":3765:3771   */\n      0x00\n        /* \"#utility.yul\":3799:3804   */\n      dup2\n        /* \"#utility.yul\":3793:3805   */\n      mload\n        /* \"#utility.yul\":3783:3805   */\n      swap1\n      pop\n        /* \"#utility.yul\":3714:3812   */\n      swap2\n      swap1\n      pop\n      jump\t// out\n        /* \"#utility.yul\":3818:3986   */\n    tag_81:\n        /* \"#utility.yul\":3901:3912   */\n      0x00\n        /* \"#utility.yul\":3935:3941   */\n      dup3\n        /* \"#utility.yul\":3930:3933   */\n      dup3\n        /* \"#utility.yul\":3923:3942   */\n      mstore\n        /* \"#utility.yul\":3975:3979   */\n      0x20\n        /* \"#utility.yul\":3970:3973   */\n      dup3\n        /* \"#utility.yul\":3966:3980   */\n      add\n        /* \"#utility.yul\":3951:3980   */\n      swap1\n      pop\n        /* \"#utility.yul\":3818:3986   */\n      swap3\n      swap2\n      pop\n      pop\n      jump\t// out\n        /* \"#utility.yul\":3992:4131   */\n    tag_82:\n        /* \"#utility.yul\":4081:4087   */\n      dup3\n        /* \"#utility.yul\":4076:4079   */\n      dup2\n        /* \"#utility.yul\":4071:4074   */\n      dup4\n        /* \"#utility.yul\":4065:4088   */\n      mcopy\n        /* \"#utility.yul\":4122:4123   */\n      0x00\n        /* \"#utility.yul\":4113:4119   */\n      dup4\n        /* \"#utility.yul\":4108:4111   */\n      dup4\n        /* \"#utility.yul\":4104:4120   */\n      add\n        /* \"#utility.yul\":4097:4124   */\n      mstore\n        /* \"#utility.yul\":3992:4131   */\n      pop\n      pop\n      pop\n      jump\t// out\n        /* \"#utility.yul\":4137:4510   */\n    tag_83:\n        /* \"#utility.yul\":4223:4226   */\n      0x00\n        /* \"#utility.yul\":4251:4289   */\n      tag_153\n        /* \"#utility.yul\":4283:4288   */\n      dup3\n        /* \"#utility.yul\":4251:4289   */\n      tag_80\n      jump\t// in\n    tag_153:\n        /* \"#utility.yul\":4305:4375   */\n      tag_154\n        /* \"#utility.yul\":4368:4374   */\n      dup2\n        /* \"#utility.yul\":4363:4366   */\n      dup6\n        /* \"#utility.yul\":4305:4375   */\n      tag_81\n      jump\t// in\n    tag_154:\n        /* \"#utility.yul\":4298:4375   */\n      swap4\n      pop\n        /* \"#utility.yul\":4384:4449   */\n      tag_155\n        /* \"#utility.yul\":4442:4448   */\n      dup2\n        /* \"#utility.yul\":4437:4440   */\n      dup6\n        /* \"#utility.yul\":4430:4434   */\n      0x20\n        /* \"#utility.yul\":4423:4428   */\n      dup7\n        /* \"#utility.yul\":4419:4435   */\n      add\n        /* \"#utility.yul\":4384:4449   */\n      tag_82\n      jump\t// in\n    tag_155:\n        /* \"#utility.yul\":4474:4503   */\n      tag_156\n        /* \"#utility.yul\":4496:4502   */\n      dup2\n        /* \"#utility.yul\":4474:4503   */\n      tag_72\n      jump\t// in\n    tag_156:\n        /* \"#utility.yul\":4469:4472   */\n      dup5\n        /* \"#utility.yul\":4465:4504   */\n      add\n        /* \"#utility.yul\":4458:4504   */\n      swap2\n      pop\n        /* \"#utility.yul\":4227:4510   */\n      pop\n        /* \"#utility.yul\":4137:4510   */\n      swap3\n      swap2\n      pop\n      pop\n      jump\t// out\n        /* \"#utility.yul\":4516:4825   */\n    tag_11:\n        /* \"#utility.yul\":4627:4631   */\n      0x00\n        /* \"#utility.yul\":4665:4667   */\n      0x20\n        /* \"#utility.yul\":4654:4663   */\n      dup3\n        /* \"#utility.yul\":4650:4668   */\n      add\n        /* \"#utility.yul\":4642:4668   */\n      swap1\n      pop\n        /* \"#utility.yul\":4714:4723   */\n      dup2\n        /* \"#utility.yul\":4708:4712   */\n      dup2\n        /* \"#utility.yul\":4704:4724   */\n      sub\n        /* \"#utility.yul\":4700:4701   */\n      0x00\n        /* \"#utility.yul\":4689:4698   */\n      dup4\n        /* \"#utility.yul\":4685:4702   */\n      add\n        /* \"#utility.yul\":4678:4725   */\n      mstore\n        /* \"#utility.yul\":4742:4818   */\n      tag_158\n        /* \"#utility.yul\":4813:4817   */\n      dup2\n        /* \"#utility.yul\":4804:4810   */\n      dup5\n        /* \"#utility.yul\":4742:4818   */\n      tag_83\n      jump\t// in\n    tag_158:\n        /* \"#utility.yul\":4734:4818   */\n      swap1\n      pop\n        /* \"#utility.yul\":4516:4825   */\n      swap3\n      swap2\n      pop\n      pop\n      jump\t// out\n        /* \"#utility.yul\":4831:4908   */\n    tag_84:\n        /* \"#utility.yul\":4868:4875   */\n      0x00\n        /* \"#utility.yul\":4897:4902   */\n      dup2\n        /* \"#utility.yul\":4886:4902   */\n      swap1\n      pop\n        /* \"#utility.yul\":4831:4908   */\n      swap2\n      swap1\n      pop\n      jump\t// out\n        /* \"#utility.yul\":4914:5036   */\n    tag_85:\n        /* \"#utility.yul\":4987:5011   */\n      tag_161\n        /* \"#utility.yul\":5005:5010   */\n      dup2\n        /* \"#utility.yul\":4987:5011   */\n      tag_84\n      jump\t// in\n    tag_161:\n        /* \"#utility.yul\":4980:4985   */\n      dup2\n        /* \"#utility.yul\":4977:5012   */\n      eq\n        /* \"#utility.yul\":4967:5030   */\n      tag_162\n      jumpi\n        /* \"#utility.yul\":5026:5027   */\n      0x00\n        /* \"#utility.yul\":5023:5024   */\n      0x00\n        /* \"#utility.yul\":5016:5028   */\n      revert\n        /* \"#utility.yul\":4967:5030   */\n    tag_162:\n        /* \"#utility.yul\":4914:5036   */\n      pop\n      jump\t// out\n        /* \"#utility.yul\":5042:5181   */\n    tag_86:\n        /* \"#utility.yul\":5088:5093   */\n      0x00\n        /* \"#utility.yul\":5126:5132   */\n      dup2\n        /* \"#utility.yul\":5113:5133   */\n      calldataload\n        /* \"#utility.yul\":5104:5133   */\n      swap1\n      pop\n        /* \"#utility.yul\":5142:5175   */\n      tag_164\n        /* \"#utility.yul\":5169:5174   */\n      dup2\n        /* \"#utility.yul\":5142:5175   */\n      tag_85\n      jump\t// in\n    tag_164:\n        /* \"#utility.yul\":5042:5181   */\n      swap3\n      swap2\n      pop\n      pop\n      jump\t// out\n        /* \"#utility.yul\":5187:5516   */\n    tag_14:\n        /* \"#utility.yul\":5246:5252   */\n      0x00\n        /* \"#utility.yul\":5295:5297   */\n      0x20\n        /* \"#utility.yul\":5283:5292   */\n      dup3\n        /* \"#utility.yul\":5274:5281   */\n      dup5\n        /* \"#utility.yul\":5270:5293   */\n      sub\n        /* \"#utility.yul\":5266:5298   */\n      slt\n        /* \"#utility.yul\":5263:5382   */\n      iszero\n      tag_166\n      jumpi\n        /* \"#utility.yul\":5301:5380   */\n      tag_167\n      tag_64\n      jump\t// in\n    tag_167:\n        /* \"#utility.yul\":5263:5382   */\n    tag_166:\n        /* \"#utility.yul\":5421:5422   */\n      0x00\n        /* \"#utility.yul\":5446:5499   */\n      tag_168\n        /* \"#utility.yul\":5491:5498   */\n      dup5\n        /* \"#utility.yul\":5482:5488   */\n      dup3\n        /* \"#utility.yul\":5471:5480   */\n      dup6\n        /* \"#utility.yul\":5467:5489   */\n      add\n        /* \"#utility.yul\":5446:5499   */\n      tag_86\n      jump\t// in\n    tag_168:\n        /* \"#utility.yul\":5436:5499   */\n      swap2\n      pop\n        /* \"#utility.yul\":5392:5509   */\n      pop\n        /* \"#utility.yul\":5187:5516   */\n      swap3\n      swap2\n      pop\n      pop\n      jump\t// out\n        /* \"#utility.yul\":5522:5640   */\n    tag_87:\n        /* \"#utility.yul\":5609:5633   */\n      tag_170\n        /* \"#utility.yul\":5627:5632   */\n      dup2\n        /* \"#utility.yul\":5609:5633   */\n      tag_84\n      jump\t// in\n    tag_170:\n        /* \"#utility.yul\":5604:5607   */\n      dup3\n        /* \"#utility.yul\":5597:5634   */\n      mstore\n        /* \"#utility.yul\":5522:5640   */\n      pop\n      pop\n      jump\t// out\n        /* \"#utility.yul\":5646:5868   */\n    tag_17:\n        /* \"#utility.yul\":5739:5743   */\n      0x00\n        /* \"#utility.yul\":5777:5779   */\n      0x20\n        /* \"#utility.yul\":5766:5775   */\n      dup3\n        /* \"#utility.yul\":5762:5780   */\n      add\n        /* \"#utility.yul\":5754:5780   */\n      swap1\n      pop\n        /* \"#utility.yul\":5790:5861   */\n      tag_172\n        /* \"#utility.yul\":5858:5859   */\n      0x00\n        /* \"#utility.yul\":5847:5856   */\n      dup4\n        /* \"#utility.yul\":5843:5860   */\n      add\n        /* \"#utility.yul\":5834:5840   */\n      dup5\n        /* \"#utility.yul\":5790:5861   */\n      tag_87\n      jump\t// in\n    tag_172:\n        /* \"#utility.yul\":5646:5868   */\n      swap3\n      swap2\n      pop\n      pop\n      jump\t// out\n        /* \"#utility.yul\":5874:5964   */\n    tag_88:\n        /* \"#utility.yul\":5908:5915   */\n      0x00\n        /* \"#utility.yul\":5951:5956   */\n      dup2\n        /* \"#utility.yul\":5944:5957   */\n      iszero\n        /* \"#utility.yul\":5937:5958   */\n      iszero\n        /* \"#utility.yul\":5926:5958   */\n      swap1\n      pop\n        /* \"#utility.yul\":5874:5964   */\n      swap2\n      swap1\n      pop\n      jump\t// out\n        /* \"#utility.yul\":5970:6079   */\n    tag_89:\n        /* \"#utility.yul\":6051:6072   */\n      tag_175\n        /* \"#utility.yul\":6066:6071   */\n      dup2\n        /* \"#utility.yul\":6051:6072   */\n      tag_88\n      jump\t// in\n    tag_175:\n        /* \"#utility.yul\":6046:6049   */\n      dup3\n        /* \"#utility.yul\":6039:6073   */\n      mstore\n        /* \"#utility.yul\":5970:6079   */\n      pop\n      pop\n      jump\t// out\n        /* \"#utility.yul\":6085:6492   */\n    tag_22:\n        /* \"#utility.yul\":6218:6222   */\n      0x00\n        /* \"#utility.yul\":6256:6258   */\n      0x40\n        /* \"#utility.yul\":6245:6254   */\n      dup3\n        /* \"#utility.yul\":6241:6259   */\n      add\n        /* \"#utility.yul\":6233:6259   */\n      swap1\n      pop\n        /* \"#utility.yul\":6269:6334   */\n      tag_177\n        /* \"#utility.yul\":6331:6332   */\n      0x00\n        /* \"#utility.yul\":6320:6329   */\n      dup4\n        /* \"#utility.yul\":6316:6333   */\n      add\n        /* \"#utility.yul\":6307:6313   */\n      dup6\n        /* \"#utility.yul\":6269:6334   */\n      tag_89\n      jump\t// in\n    tag_177:\n        /* \"#utility.yul\":6381:6390   */\n      dup2\n        /* \"#utility.yul\":6375:6379   */\n      dup2\n        /* \"#utility.yul\":6371:6391   */\n      sub\n        /* \"#utility.yul\":6366:6368   */\n      0x20\n        /* \"#utility.yul\":6355:6364   */\n      dup4\n        /* \"#utility.yul\":6351:6369   */\n      add\n        /* \"#utility.yul\":6344:6392   */\n      mstore\n        /* \"#utility.yul\":6409:6485   */\n      tag_178\n        /* \"#utility.yul\":6480:6484   */\n      dup2\n        /* \"#utility.yul\":6471:6477   */\n      dup5\n        /* \"#utility.yul\":6409:6485   */\n      tag_83\n      jump\t// in\n    tag_178:\n        /* \"#utility.yul\":6401:6485   */\n      swap1\n      pop\n        /* \"#utility.yul\":6085:6492   */\n      swap4\n      swap3\n      pop\n      pop\n      pop\n      jump\t// out\n        /* \"#utility.yul\":6498:6645   */\n    tag_90:\n        /* \"#utility.yul\":6599:6610   */\n      0x00\n        /* \"#utility.yul\":6636:6639   */\n      dup2\n        /* \"#utility.yul\":6621:6639   */\n      swap1\n      pop\n        /* \"#utility.yul\":6498:6645   */\n      swap3\n      swap2\n      pop\n      pop\n      jump\t// out\n        /* \"#utility.yul\":6651:7037   */\n    tag_91:\n        /* \"#utility.yul\":6755:6758   */\n      0x00\n        /* \"#utility.yul\":6783:6821   */\n      tag_181\n        /* \"#utility.yul\":6815:6820   */\n      dup3\n        /* \"#utility.yul\":6783:6821   */\n      tag_80\n      jump\t// in\n    tag_181:\n        /* \"#utility.yul\":6837:6925   */\n      tag_182\n        /* \"#utility.yul\":6918:6924   */\n      dup2\n        /* \"#utility.yul\":6913:6916   */\n      dup6\n        /* \"#utility.yul\":6837:6925   */\n      tag_90\n      jump\t// in\n    tag_182:\n        /* \"#utility.yul\":6830:6925   */\n      swap4\n      pop\n        /* \"#utility.yul\":6934:6999   */\n      tag_183\n        /* \"#utility.yul\":6992:6998   */\n      dup2\n        /* \"#utility.yul\":6987:6990   */\n      dup6\n        /* \"#utility.yul\":6980:6984   */\n      0x20\n        /* \"#utility.yul\":6973:6978   */\n      dup7\n        /* \"#utility.yul\":6969:6985   */\n      add\n        /* \"#utility.yul\":6934:6999   */\n      tag_82\n      jump\t// in\n    tag_183:\n        /* \"#utility.yul\":7024:7030   */\n      dup1\n        /* \"#utility.yul\":7019:7022   */\n      dup5\n        /* \"#utility.yul\":7015:7031   */\n      add\n        /* \"#utility.yul\":7008:7031   */\n      swap2\n      pop\n        /* \"#utility.yul\":6759:7037   */\n      pop\n        /* \"#utility.yul\":6651:7037   */\n      swap3\n      swap2\n      pop\n      pop\n      jump\t// out\n        /* \"#utility.yul\":7043:7314   */\n    tag_25:\n        /* \"#utility.yul\":7173:7176   */\n      0x00\n        /* \"#utility.yul\":7195:7288   */\n      tag_185\n        /* \"#utility.yul\":7284:7287   */\n      dup3\n        /* \"#utility.yul\":7275:7281   */\n      dup5\n        /* \"#utility.yul\":7195:7288   */\n      tag_91\n      jump\t// in\n    tag_185:\n        /* \"#utility.yul\":7188:7288   */\n      swap2\n      pop\n        /* \"#utility.yul\":7305:7308   */\n      dup2\n        /* \"#utility.yul\":7298:7308   */\n      swap1\n      pop\n        /* \"#utility.yul\":7043:7314   */\n      swap3\n      swap2\n      pop\n      pop\n      jump\t// out\n        /* \"#utility.yul\":7320:7489   */\n    tag_92:\n        /* \"#utility.yul\":7404:7415   */\n      0x00\n        /* \"#utility.yul\":7438:7444   */\n      dup3\n        /* \"#utility.yul\":7433:7436   */\n      dup3\n        /* \"#utility.yul\":7426:7445   */\n      mstore\n        /* \"#utility.yul\":7478:7482   */\n      0x20\n        /* \"#utility.yul\":7473:7476   */\n      dup3\n        /* \"#utility.yul\":7469:7483   */\n      add\n        /* \"#utility.yul\":7454:7483   */\n      swap1\n      pop\n        /* \"#utility.yul\":7320:7489   */\n      swap3\n      swap2\n      pop\n      pop\n      jump\t// out\n        /* \"#utility.yul\":7495:7665   */\n    tag_93:\n        /* \"#utility.yul\":7635:7657   */\n      0x45787465726e616c2063616c6c206661696c6564000000000000000000000000\n        /* \"#utility.yul\":7631:7632   */\n      0x00\n        /* \"#utility.yul\":7623:7629   */\n      dup3\n        /* \"#utility.yul\":7619:7633   */\n      add\n        /* \"#utility.yul\":7612:7658   */\n      mstore\n        /* \"#utility.yul\":7495:7665   */\n      pop\n      jump\t// out\n        /* \"#utility.yul\":7671:8037   */\n    tag_94:\n        /* \"#utility.yul\":7813:7816   */\n      0x00\n        /* \"#utility.yul\":7834:7901   */\n      tag_189\n        /* \"#utility.yul\":7898:7900   */\n      0x14\n        /* \"#utility.yul\":7893:7896   */\n      dup4\n        /* \"#utility.yul\":7834:7901   */\n      tag_92\n      jump\t// in\n    tag_189:\n        /* \"#utility.yul\":7827:7901   */\n      swap2\n      pop\n        /* \"#utility.yul\":7910:8003   */\n      tag_190\n        /* \"#utility.yul\":7999:8002   */\n      dup3\n        /* \"#utility.yul\":7910:8003   */\n      tag_93\n      jump\t// in\n    tag_190:\n        /* \"#utility.yul\":8028:8030   */\n      0x20\n        /* \"#utility.yul\":8023:8026   */\n      dup3\n        /* \"#utility.yul\":8019:8031   */\n      add\n        /* \"#utility.yul\":8012:8031   */\n      swap1\n      pop\n        /* \"#utility.yul\":7671:8037   */\n      swap2\n      swap1\n      pop\n      jump\t// out\n        /* \"#utility.yul\":8043:8462   */\n    tag_31:\n        /* \"#utility.yul\":8209:8213   */\n      0x00\n        /* \"#utility.yul\":8247:8249   */\n      0x20\n        /* \"#utility.yul\":8236:8245   */\n      dup3\n        /* \"#utility.yul\":8232:8250   */\n      add\n        /* \"#utility.yul\":8224:8250   */\n      swap1\n      pop\n        /* \"#utility.yul\":8296:8305   */\n      dup2\n        /* \"#utility.yul\":8290:8294   */\n      dup2\n        /* \"#utility.yul\":8286:8306   */\n      sub\n        /* \"#utility.yul\":8282:8283   */\n      0x00\n        /* \"#utility.yul\":8271:8280   */\n      dup4\n        /* \"#utility.yul\":8267:8284   */\n      add\n        /* \"#utility.yul\":8260:8307   */\n      mstore\n        /* \"#utility.yul\":8324:8455   */\n      tag_192\n        /* \"#utility.yul\":8450:8454   */\n      dup2\n        /* \"#utility.yul\":8324:8455   */\n      tag_94\n      jump\t// in\n    tag_192:\n        /* \"#utility.yul\":8316:8455   */\n      swap1\n      pop\n        /* \"#utility.yul\":8043:8462   */\n      swap2\n      swap1\n      pop\n      jump\t// out\n        /* \"#utility.yul\":8468:8642   */\n    tag_95:\n        /* \"#utility.yul\":8608:8634   */\n      0x6e206d7573742062652067726561746572207468616e20300000000000000000\n        /* \"#utility.yul\":8604:8605   */\n      0x00\n        /* \"#utility.yul\":8596:8602   */\n      dup3\n        /* \"#utility.yul\":8592:8606   */\n      add\n        /* \"#utility.yul\":8585:8635   */\n      mstore\n        /* \"#utility.yul\":8468:8642   */\n      pop\n      jump\t// out\n        /* \"#utility.yul\":8648:9014   */\n    tag_96:\n        /* \"#utility.yul\":8790:8793   */\n      0x00\n        /* \"#utility.yul\":8811:8878   */\n      tag_195\n        /* \"#utility.yul\":8875:8877   */\n      0x18\n        /* \"#utility.yul\":8870:8873   */\n      dup4\n        /* \"#utility.yul\":8811:8878   */\n      tag_92\n      jump\t// in\n    tag_195:\n        /* \"#utility.yul\":8804:8878   */\n      swap2\n      pop\n        /* \"#utility.yul\":8887:8980   */\n      tag_196\n        /* \"#utility.yul\":8976:8979   */\n      dup3\n        /* \"#utility.yul\":8887:8980   */\n      tag_95\n      jump\t// in\n    tag_196:\n        /* \"#utility.yul\":9005:9007   */\n      0x20\n        /* \"#utility.yul\":9000:9003   */\n      dup3\n        /* \"#utility.yul\":8996:9008   */\n      add\n        /* \"#utility.yul\":8989:9008   */\n      swap1\n      pop\n        /* \"#utility.yul\":8648:9014   */\n      swap2\n      swap1\n      pop\n      jump\t// out\n        /* \"#utility.yul\":9020:9439   */\n    tag_35:\n        /* \"#utility.yul\":9186:9190   */\n      0x00\n        /* \"#utility.yul\":9224:9226   */\n      0x20\n        /* \"#utility.yul\":9213:9222   */\n      dup3\n        /* \"#utility.yul\":9209:9227   */\n      add\n        /* \"#utility.yul\":9201:9227   */\n      swap1\n      pop\n        /* \"#utility.yul\":9273:9282   */\n      dup2\n        /* \"#utility.yul\":9267:9271   */\n      dup2\n        /* \"#utility.yul\":9263:9283   */\n      sub\n        /* \"#utility.yul\":9259:9260   */\n      0x00\n        /* \"#utility.yul\":9248:9257   */\n      dup4\n        /* \"#utility.yul\":9244:9261   */\n      add\n        /* \"#utility.yul\":9237:9284   */\n      mstore\n        /* \"#utility.yul\":9301:9432   */\n      tag_198\n        /* \"#utility.yul\":9427:9431   */\n      dup2\n        /* \"#utility.yul\":9301:9432   */\n      tag_96\n      jump\t// in\n    tag_198:\n        /* \"#utility.yul\":9293:9432   */\n      swap1\n      pop\n        /* \"#utility.yul\":9020:9439   */\n      swap2\n      swap1\n      pop\n      jump\t// out\n        /* \"#utility.yul\":9445:9625   */\n    tag_97:\n        /* \"#utility.yul\":9493:9570   */\n      0x4e487b7100000000000000000000000000000000000000000000000000000000\n        /* \"#utility.yul\":9490:9491   */\n      0x00\n        /* \"#utility.yul\":9483:9571   */\n      mstore\n        /* \"#utility.yul\":9590:9594   */\n      0x11\n        /* \"#utility.yul\":9587:9588   */\n      0x04\n        /* \"#utility.yul\":9580:9595   */\n      mstore\n        /* \"#utility.yul\":9614:9618   */\n      0x24\n        /* \"#utility.yul\":9611:9612   */\n      0x00\n        /* \"#utility.yul\":9604:9619   */\n      revert\n        /* \"#utility.yul\":9631:9822   */\n    tag_40:\n        /* \"#utility.yul\":9671:9674   */\n      0x00\n        /* \"#utility.yul\":9690:9710   */\n      tag_201\n        /* \"#utility.yul\":9708:9709   */\n      dup3\n        /* \"#utility.yul\":9690:9710   */\n      tag_84\n      jump\t// in\n    tag_201:\n        /* \"#utility.yul\":9685:9710   */\n      swap2\n      pop\n        /* \"#utility.yul\":9724:9744   */\n      tag_202\n        /* \"#utility.yul\":9742:9743   */\n      dup4\n        /* \"#utility.yul\":9724:9744   */\n      tag_84\n      jump\t// in\n    tag_202:\n        /* \"#utility.yul\":9719:9744   */\n      swap3\n      pop\n        /* \"#utility.yul\":9767:9768   */\n      dup3\n        /* \"#utility.yul\":9764:9765   */\n      dup3\n        /* \"#utility.yul\":9760:9769   */\n      add\n        /* \"#utility.yul\":9753:9769   */\n      swap1\n      pop\n        /* \"#utility.yul\":9788:9791   */\n      dup1\n        /* \"#utility.yul\":9785:9786   */\n      dup3\n        /* \"#utility.yul\":9782:9792   */\n      gt\n        /* \"#utility.yul\":9779:9815   */\n      iszero\n      tag_203\n      jumpi\n        /* \"#utility.yul\":9795:9813   */\n      tag_204\n      tag_97\n      jump\t// in\n    tag_204:\n        /* \"#utility.yul\":9779:9815   */\n    tag_203:\n        /* \"#utility.yul\":9631:9822   */\n      swap3\n      swap2\n      pop\n      pop\n      jump\t// out\n        /* \"#utility.yul\":9828:9946   */\n    tag_98:\n        /* \"#utility.yul\":9915:9939   */\n      tag_206\n        /* \"#utility.yul\":9933:9938   */\n      dup2\n        /* \"#utility.yul\":9915:9939   */\n      tag_67\n      jump\t// in\n    tag_206:\n        /* \"#utility.yul\":9910:9913   */\n      dup3\n        /* \"#utility.yul\":9903:9940   */\n      mstore\n        /* \"#utility.yul\":9828:9946   */\n      pop\n      pop\n      jump\t// out\n        /* \"#utility.yul\":9952:10371   */\n    tag_44:\n        /* \"#utility.yul\":10091:10095   */\n      0x00\n        /* \"#utility.yul\":10129:10131   */\n      0x40\n        /* \"#utility.yul\":10118:10127   */\n      dup3\n        /* \"#utility.yul\":10114:10132   */\n      add\n        /* \"#utility.yul\":10106:10132   */\n      swap1\n      pop\n        /* \"#utility.yul\":10142:10213   */\n      tag_208\n        /* \"#utility.yul\":10210:10211   */\n      0x00\n        /* \"#utility.yul\":10199:10208   */\n      dup4\n        /* \"#utility.yul\":10195:10212   */\n      add\n        /* \"#utility.yul\":10186:10192   */\n      dup6\n        /* \"#utility.yul\":10142:10213   */\n      tag_98\n      jump\t// in\n    tag_208:\n        /* \"#utility.yul\":10260:10269   */\n      dup2\n        /* \"#utility.yul\":10254:10258   */\n      dup2\n        /* \"#utility.yul\":10250:10270   */\n      sub\n        /* \"#utility.yul\":10245:10247   */\n      0x20\n        /* \"#utility.yul\":10234:10243   */\n      dup4\n        /* \"#utility.yul\":10230:10248   */\n      add\n        /* \"#utility.yul\":10223:10271   */\n      mstore\n        /* \"#utility.yul\":10288:10364   */\n      tag_209\n        /* \"#utility.yul\":10359:10363   */\n      dup2\n        /* \"#utility.yul\":10350:10356   */\n      dup5\n        /* \"#utility.yul\":10288:10364   */\n      tag_83\n      jump\t// in\n    tag_209:\n        /* \"#utility.yul\":10280:10364   */\n      swap1\n      pop\n        /* \"#utility.yul\":9952:10371   */\n      swap4\n      swap3\n      pop\n      pop\n      pop\n      jump\t// out\n        /* \"#utility.yul\":10377:10809   */\n    tag_99:\n        /* \"#utility.yul\":10465:10470   */\n      0x00\n        /* \"#utility.yul\":10490:10555   */\n      tag_211\n        /* \"#utility.yul\":10506:10554   */\n      tag_212\n        /* \"#utility.yul\":10547:10553   */\n      dup5\n        /* \"#utility.yul\":10506:10554   */\n      tag_76\n      jump\t// in\n    tag_212:\n        /* \"#utility.yul\":10490:10555   */\n      tag_75\n      jump\t// in\n    tag_211:\n        /* \"#utility.yul\":10481:10555   */\n      swap1\n      pop\n        /* \"#utility.yul\":10578:10584   */\n      dup3\n        /* \"#utility.yul\":10571:10576   */\n      dup2\n        /* \"#utility.yul\":10564:10585   */\n      mstore\n        /* \"#utility.yul\":10616:10620   */\n      0x20\n        /* \"#utility.yul\":10609:10614   */\n      dup2\n        /* \"#utility.yul\":10605:10621   */\n      add\n        /* \"#utility.yul\":10654:10657   */\n      dup5\n        /* \"#utility.yul\":10645:10651   */\n      dup5\n        /* \"#utility.yul\":10640:10643   */\n      dup5\n        /* \"#utility.yul\":10636:10652   */\n      add\n        /* \"#utility.yul\":10633:10658   */\n      gt\n        /* \"#utility.yul\":10630:10742   */\n      iszero\n      tag_213\n      jumpi\n        /* \"#utility.yul\":10661:10740   */\n      tag_214\n      tag_71\n      jump\t// in\n    tag_214:\n        /* \"#utility.yul\":10630:10742   */\n    tag_213:\n        /* \"#utility.yul\":10751:10803   */\n      tag_215\n        /* \"#utility.yul\":10796:10802   */\n      dup5\n        /* \"#utility.yul\":10791:10794   */\n      dup3\n        /* \"#utility.yul\":10786:10789   */\n      dup6\n        /* \"#utility.yul\":10751:10803   */\n      tag_82\n      jump\t// in\n    tag_215:\n        /* \"#utility.yul\":10471:10809   */\n      pop\n        /* \"#utility.yul\":10377:10809   */\n      swap4\n      swap3\n      pop\n      pop\n      pop\n      jump\t// out\n        /* \"#utility.yul\":10828:11181   */\n    tag_100:\n        /* \"#utility.yul\":10894:10899   */\n      0x00\n        /* \"#utility.yul\":10943:10946   */\n      dup3\n        /* \"#utility.yul\":10936:10940   */\n      0x1f\n        /* \"#utility.yul\":10928:10934   */\n      dup4\n        /* \"#utility.yul\":10924:10941   */\n      add\n        /* \"#utility.yul\":10920:10947   */\n      slt\n        /* \"#utility.yul\":10910:11032   */\n      tag_217\n      jumpi\n        /* \"#utility.yul\":10951:11030   */\n      tag_218\n      tag_70\n      jump\t// in\n    tag_218:\n        /* \"#utility.yul\":10910:11032   */\n    tag_217:\n        /* \"#utility.yul\":11061:11067   */\n      dup2\n        /* \"#utility.yul\":11055:11068   */\n      mload\n        /* \"#utility.yul\":11086:11175   */\n      tag_219\n        /* \"#utility.yul\":11171:11174   */\n      dup5\n        /* \"#utility.yul\":11163:11169   */\n      dup3\n        /* \"#utility.yul\":11156:11160   */\n      0x20\n        /* \"#utility.yul\":11148:11154   */\n      dup7\n        /* \"#utility.yul\":11144:11161   */\n      add\n        /* \"#utility.yul\":11086:11175   */\n      tag_99\n      jump\t// in\n    tag_219:\n        /* \"#utility.yul\":11077:11175   */\n      swap2\n      pop\n        /* \"#utility.yul\":10900:11181   */\n      pop\n        /* \"#utility.yul\":10828:11181   */\n      swap3\n      swap2\n      pop\n      pop\n      jump\t// out\n        /* \"#utility.yul\":11187:11709   */\n    tag_47:\n        /* \"#utility.yul\":11266:11272   */\n      0x00\n        /* \"#utility.yul\":11315:11317   */\n      0x20\n        /* \"#utility.yul\":11303:11312   */\n      dup3\n        /* \"#utility.yul\":11294:11301   */\n      dup5\n        /* \"#utility.yul\":11290:11313   */\n      sub\n        /* \"#utility.yul\":11286:11318   */\n      slt\n        /* \"#utility.yul\":11283:11402   */\n      iszero\n      tag_221\n      jumpi\n        /* \"#utility.yul\":11321:11400   */\n      tag_222\n      tag_64\n      jump\t// in\n    tag_222:\n        /* \"#utility.yul\":11283:11402   */\n    tag_221:\n        /* \"#utility.yul\":11462:11463   */\n      0x00\n        /* \"#utility.yul\":11451:11460   */\n      dup3\n        /* \"#utility.yul\":11447:11464   */\n      add\n        /* \"#utility.yul\":11441:11465   */\n      mload\n        /* \"#utility.yul\":11492:11510   */\n      0xffffffffffffffff\n        /* \"#utility.yul\":11484:11490   */\n      dup2\n        /* \"#utility.yul\":11481:11511   */\n      gt\n        /* \"#utility.yul\":11478:11595   */\n      iszero\n      tag_223\n      jumpi\n        /* \"#utility.yul\":11514:11593   */\n      tag_224\n      tag_65\n      jump\t// in\n    tag_224:\n        /* \"#utility.yul\":11478:11595   */\n    tag_223:\n        /* \"#utility.yul\":11619:11692   */\n      tag_225\n        /* \"#utility.yul\":11684:11691   */\n      dup5\n        /* \"#utility.yul\":11675:11681   */\n      dup3\n        /* \"#utility.yul\":11664:11673   */\n      dup6\n        /* \"#utility.yul\":11660:11682   */\n      add\n        /* \"#utility.yul\":11619:11692   */\n      tag_100\n      jump\t// in\n    tag_225:\n        /* \"#utility.yul\":11609:11692   */\n      swap2\n      pop\n        /* \"#utility.yul\":11412:11702   */\n      pop\n        /* \"#utility.yul\":11187:11709   */\n      swap3\n      swap2\n      pop\n      pop\n      jump\t// out\n        /* \"#utility.yul\":11715:11821   */\n    tag_101:\n        /* \"#utility.yul\":11759:11767   */\n      0x00\n        /* \"#utility.yul\":11808:11813   */\n      dup2\n        /* \"#utility.yul\":11803:11806   */\n      0xe0\n        /* \"#utility.yul\":11799:11814   */\n      shr\n        /* \"#utility.yul\":11778:11814   */\n      swap1\n      pop\n        /* \"#utility.yul\":11715:11821   */\n      swap2\n      swap1\n      pop\n      jump\t// out\n        /* \"#utility.yul\":11827:12010   */\n    tag_53:\n        /* \"#utility.yul\":11862:11865   */\n      0x00\n        /* \"#utility.yul\":11900:11901   */\n      0x03\n        /* \"#utility.yul\":11882:11898   */\n      returndatasize\n        /* \"#utility.yul\":11879:11902   */\n      gt\n        /* \"#utility.yul\":11876:12004   */\n      iszero\n      tag_228\n      jumpi\n        /* \"#utility.yul\":11938:11939   */\n      0x04\n        /* \"#utility.yul\":11935:11936   */\n      0x00\n        /* \"#utility.yul\":11932:11933   */\n      0x00\n        /* \"#utility.yul\":11917:11940   */\n      returndatacopy\n        /* \"#utility.yul\":11960:11994   */\n      tag_229\n        /* \"#utility.yul\":11991:11992   */\n      0x00\n        /* \"#utility.yul\":11985:11993   */\n      mload\n        /* \"#utility.yul\":11960:11994   */\n      tag_101\n      jump\t// in\n    tag_229:\n        /* \"#utility.yul\":11953:11994   */\n      swap1\n      pop\n        /* \"#utility.yul\":11876:12004   */\n    tag_228:\n        /* \"#utility.yul\":11827:12010   */\n      swap1\n      jump\t// out\n        /* \"#utility.yul\":12016:12727   */\n    tag_55:\n        /* \"#utility.yul\":12055:12058   */\n      0x00\n        /* \"#utility.yul\":12093:12097   */\n      0x44\n        /* \"#utility.yul\":12075:12091   */\n      returndatasize\n        /* \"#utility.yul\":12072:12098   */\n      lt\n        /* \"#utility.yul\":12101:12106   */\n      tag_230\n        /* \"#utility.yul\":12069:12108   */\n      jumpi\n        /* \"#utility.yul\":12130:12150   */\n      tag_232\n      tag_63\n      jump\t// in\n    tag_232:\n        /* \"#utility.yul\":12205:12206   */\n      0x04\n        /* \"#utility.yul\":12187:12203   */\n      returndatasize\n        /* \"#utility.yul\":12183:12207   */\n      sub\n        /* \"#utility.yul\":12180:12181   */\n      0x04\n        /* \"#utility.yul\":12174:12178   */\n      dup3\n        /* \"#utility.yul\":12159:12208   */\n      returndatacopy\n        /* \"#utility.yul\":12238:12242   */\n      dup1\n        /* \"#utility.yul\":12232:12243   */\n      mload\n        /* \"#utility.yul\":12337:12353   */\n      returndatasize\n        /* \"#utility.yul\":12330:12334   */\n      0x24\n        /* \"#utility.yul\":12322:12328   */\n      dup3\n        /* \"#utility.yul\":12318:12335   */\n      add\n        /* \"#utility.yul\":12315:12354   */\n      gt\n        /* \"#utility.yul\":12282:12300   */\n      0xffffffffffffffff\n        /* \"#utility.yul\":12274:12280   */\n      dup3\n        /* \"#utility.yul\":12271:12301   */\n      gt\n        /* \"#utility.yul\":12255:12368   */\n      or\n        /* \"#utility.yul\":12252:12398   */\n      iszero\n      tag_233\n      jumpi\n        /* \"#utility.yul\":12383:12388   */\n      pop\n      pop\n      jump(tag_230)\n        /* \"#utility.yul\":12252:12398   */\n    tag_233:\n        /* \"#utility.yul\":12429:12435   */\n      dup1\n        /* \"#utility.yul\":12423:12427   */\n      dup3\n        /* \"#utility.yul\":12419:12436   */\n      add\n        /* \"#utility.yul\":12465:12468   */\n      dup1\n        /* \"#utility.yul\":12459:12469   */\n      mload\n        /* \"#utility.yul\":12492:12510   */\n      0xffffffffffffffff\n        /* \"#utility.yul\":12484:12490   */\n      dup2\n        /* \"#utility.yul\":12481:12511   */\n      gt\n        /* \"#utility.yul\":12478:12521   */\n      iszero\n      tag_234\n      jumpi\n        /* \"#utility.yul\":12514:12519   */\n      pop\n      pop\n      pop\n      pop\n      jump(tag_230)\n        /* \"#utility.yul\":12478:12521   */\n    tag_234:\n        /* \"#utility.yul\":12562:12568   */\n      dup1\n        /* \"#utility.yul\":12555:12559   */\n      0x20\n        /* \"#utility.yul\":12550:12553   */\n      dup4\n        /* \"#utility.yul\":12546:12560   */\n      add\n        /* \"#utility.yul\":12542:12569   */\n      add\n        /* \"#utility.yul\":12621:12622   */\n      0x04\n        /* \"#utility.yul\":12603:12619   */\n      returndatasize\n        /* \"#utility.yul\":12599:12623   */\n      sub\n        /* \"#utility.yul\":12593:12597   */\n      dup6\n        /* \"#utility.yul\":12589:12624   */\n      add\n        /* \"#utility.yul\":12584:12587   */\n      dup2\n        /* \"#utility.yul\":12581:12625   */\n      gt\n        /* \"#utility.yul\":12578:12635   */\n      iszero\n      tag_235\n      jumpi\n        /* \"#utility.yul\":12628:12633   */\n      pop\n      pop\n      pop\n      pop\n      pop\n      jump(tag_230)\n        /* \"#utility.yul\":12578:12635   */\n    tag_235:\n        /* \"#utility.yul\":12645:12702   */\n      tag_236\n        /* \"#utility.yul\":12693:12699   */\n      dup3\n        /* \"#utility.yul\":12687:12691   */\n      0x20\n        /* \"#utility.yul\":12683:12700   */\n      add\n        /* \"#utility.yul\":12675:12681   */\n      dup6\n        /* \"#utility.yul\":12671:12701   */\n      add\n        /* \"#utility.yul\":12665:12669   */\n      dup7\n        /* \"#utility.yul\":12645:12702   */\n      tag_74\n      jump\t// in\n    tag_236:\n        /* \"#utility.yul\":12718:12721   */\n      dup3\n        /* \"#utility.yul\":12711:12721   */\n      swap6\n      pop\n        /* \"#utility.yul\":12059:12727   */\n      pop\n      pop\n      pop\n      pop\n      pop\n        /* \"#utility.yul\":12016:12727   */\n    tag_230:\n      swap1\n      jump\t// out\n        /* \"#utility.yul\":12733:12832   */\n    tag_102:\n        /* \"#utility.yul\":12785:12791   */\n      0x00\n        /* \"#utility.yul\":12819:12824   */\n      dup2\n        /* \"#utility.yul\":12813:12825   */\n      mload\n        /* \"#utility.yul\":12803:12825   */\n      swap1\n      pop\n        /* \"#utility.yul\":12733:12832   */\n      swap2\n      swap1\n      pop\n      jump\t// out\n        /* \"#utility.yul\":12838:13215   */\n    tag_103:\n        /* \"#utility.yul\":12926:12929   */\n      0x00\n        /* \"#utility.yul\":12954:12993   */\n      tag_239\n        /* \"#utility.yul\":12987:12992   */\n      dup3\n        /* \"#utility.yul\":12954:12993   */\n      tag_102\n      jump\t// in\n    tag_239:\n        /* \"#utility.yul\":13009:13080   */\n      tag_240\n        /* \"#utility.yul\":13073:13079   */\n      dup2\n        /* \"#utility.yul\":13068:13071   */\n      dup6\n        /* \"#utility.yul\":13009:13080   */\n      tag_92\n      jump\t// in\n    tag_240:\n        /* \"#utility.yul\":13002:13080   */\n      swap4\n      pop\n        /* \"#utility.yul\":13089:13154   */\n      tag_241\n        /* \"#utility.yul\":13147:13153   */\n      dup2\n        /* \"#utility.yul\":13142:13145   */\n      dup6\n        /* \"#utility.yul\":13135:13139   */\n      0x20\n        /* \"#utility.yul\":13128:13133   */\n      dup7\n        /* \"#utility.yul\":13124:13140   */\n      add\n        /* \"#utility.yul\":13089:13154   */\n      tag_82\n      jump\t// in\n    tag_241:\n        /* \"#utility.yul\":13179:13208   */\n      tag_242\n        /* \"#utility.yul\":13201:13207   */\n      dup2\n        /* \"#utility.yul\":13179:13208   */\n      tag_72\n      jump\t// in\n    tag_242:\n        /* \"#utility.yul\":13174:13177   */\n      dup5\n        /* \"#utility.yul\":13170:13209   */\n      add\n        /* \"#utility.yul\":13163:13209   */\n      swap2\n      pop\n        /* \"#utility.yul\":12930:13215   */\n      pop\n        /* \"#utility.yul\":12838:13215   */\n      swap3\n      swap2\n      pop\n      pop\n      jump\t// out\n        /* \"#utility.yul\":13221:13534   */\n    tag_58:\n        /* \"#utility.yul\":13334:13338   */\n      0x00\n        /* \"#utility.yul\":13372:13374   */\n      0x20\n        /* \"#utility.yul\":13361:13370   */\n      dup3\n        /* \"#utility.yul\":13357:13375   */\n      add\n        /* \"#utility.yul\":13349:13375   */\n      swap1\n      pop\n        /* \"#utility.yul\":13421:13430   */\n      dup2\n        /* \"#utility.yul\":13415:13419   */\n      dup2\n        /* \"#utility.yul\":13411:13431   */\n      sub\n        /* \"#utility.yul\":13407:13408   */\n      0x00\n        /* \"#utility.yul\":13396:13405   */\n      dup4\n        /* \"#utility.yul\":13392:13409   */\n      add\n        /* \"#utility.yul\":13385:13432   */\n      mstore\n        /* \"#utility.yul\":13449:13527   */\n      tag_244\n        /* \"#utility.yul\":13522:13526   */\n      dup2\n        /* \"#utility.yul\":13513:13519   */\n      dup5\n        /* \"#utility.yul\":13449:13527   */\n      tag_103\n      jump\t// in\n    tag_244:\n        /* \"#utility.yul\":13441:13527   */\n      swap1\n      pop\n        /* \"#utility.yul\":13221:13534   */\n      swap3\n      swap2\n      pop\n      pop\n      jump\t// out\n\n    auxdata: 0xa26469706673582212207b30b03d4678f06ede880f647b2462856f3db57947833ef1e5871e410106e67164736f6c634300081e0033\n}\n",
				"bytecode": {
					"linkReferences": {},
					"object": "6080604052348015600e575f5ffd5b50610a9d8061001c5f395ff3fe608060405234801561000f575f5ffd5b506004361061003f575f3560e01c8063654c9bdb146100435780636c74f20714610073578063d9a92e69146100a3575b5f5ffd5b61005d60048036038101906100589190610521565b6100d4565b60405161006a91906105db565b60405180910390f35b61008d6004803603810190610088919061062e565b61018b565b60405161009a9190610668565b60405180910390f35b6100bd60048036038101906100b89190610521565b61020b565b6040516100cb92919061069b565b60405180910390f35b60605f5f8473ffffffffffffffffffffffffffffffffffffffff16846040516100fd9190610703565b5f604051808303815f865af19150503d805f8114610136576040519150601f19603f3d011682016040523d82523d5f602084013e61013b565b606091505b509150915081610180576040517f08c379a000000000000000000000000000000000000000000000000000000000815260040161017790610773565b60405180910390fd5b809250505092915050565b5f5f82116101ce576040517f08c379a00000000000000000000000000000000000000000000000000000000081526004016101c5906107db565b60405180910390fd5b5f5f90505f600190505b8381116102015780826101eb9190610826565b91506002816101fa9190610826565b90506101d8565b5080915050919050565b5f60603073ffffffffffffffffffffffffffffffffffffffff1663654c9bdb85856040518363ffffffff1660e01b8152600401610249929190610868565b5f604051808303815f875af192505050801561028757506040513d5f823e3d601f19601f820116820180604052508101906102849190610904565b60015b61036a57610293610957565b806308c379a0036102f557506102a7610976565b806102b257506102f7565b7f8c69e2b640cfe0784f7f54b2b09d1e1ddf6773a73a01a049c289170b071129b8816040516102e19190610a47565b60405180910390a15f819250925050610373565b505b3d805f8114610321576040519150601f19603f3d011682016040523d82523d5f602084013e610326565b606091505b507fb8fe37a7fe126cb6fddc823787324498b9aa36d4b9e0309b79e3fc3a990036618160405161035691906105db565b60405180910390a15f819250925050610373565b60018192509250505b9250929050565b5f604051905090565b5f5ffd5b5f5ffd5b5f73ffffffffffffffffffffffffffffffffffffffff82169050919050565b5f6103b48261038b565b9050919050565b6103c4816103aa565b81146103ce575f5ffd5b50565b5f813590506103df816103bb565b92915050565b5f5ffd5b5f5ffd5b5f601f19601f8301169050919050565b7f4e487b71000000000000000000000000000000000000000000000000000000005f52604160045260245ffd5b610433826103ed565b810181811067ffffffffffffffff82111715610452576104516103fd565b5b80604052505050565b5f61046461037a565b9050610470828261042a565b919050565b5f67ffffffffffffffff82111561048f5761048e6103fd565b5b610498826103ed565b9050602081019050919050565b828183375f83830152505050565b5f6104c56104c084610475565b61045b565b9050828152602081018484840111156104e1576104e06103e9565b5b6104ec8482856104a5565b509392505050565b5f82601f830112610508576105076103e5565b5b81356105188482602086016104b3565b91505092915050565b5f5f6040838503121561053757610536610383565b5b5f610544858286016103d1565b925050602083013567ffffffffffffffff81111561056557610564610387565b5b610571858286016104f4565b9150509250929050565b5f81519050919050565b5f82825260208201905092915050565b8281835e5f83830152505050565b5f6105ad8261057b565b6105b78185610585565b93506105c7818560208601610595565b6105d0816103ed565b840191505092915050565b5f6020820190508181035f8301526105f381846105a3565b905092915050565b5f819050919050565b61060d816105fb565b8114610617575f5ffd5b50565b5f8135905061062881610604565b92915050565b5f6020828403121561064357610642610383565b5b5f6106508482850161061a565b91505092915050565b610662816105fb565b82525050565b5f60208201905061067b5f830184610659565b92915050565b5f8115159050919050565b61069581610681565b82525050565b5f6040820190506106ae5f83018561068c565b81810360208301526106c081846105a3565b90509392505050565b5f81905092915050565b5f6106dd8261057b565b6106e781856106c9565b93506106f7818560208601610595565b80840191505092915050565b5f61070e82846106d3565b915081905092915050565b5f82825260208201905092915050565b7f45787465726e616c2063616c6c206661696c65640000000000000000000000005f82015250565b5f61075d601483610719565b915061076882610729565b602082019050919050565b5f6020820190508181035f83015261078a81610751565b9050919050565b7f6e206d7573742062652067726561746572207468616e203000000000000000005f82015250565b5f6107c5601883610719565b91506107d082610791565b602082019050919050565b5f6020820190508181035f8301526107f2816107b9565b9050919050565b7f4e487b71000000000000000000000000000000000000000000000000000000005f52601160045260245ffd5b5f610830826105fb565b915061083b836105fb565b9250828201905080821115610853576108526107f9565b5b92915050565b610862816103aa565b82525050565b5f60408201905061087b5f830185610859565b818103602083015261088d81846105a3565b90509392505050565b5f6108a86108a384610475565b61045b565b9050828152602081018484840111156108c4576108c36103e9565b5b6108cf848285610595565b509392505050565b5f82601f8301126108eb576108ea6103e5565b5b81516108fb848260208601610896565b91505092915050565b5f6020828403121561091957610918610383565b5b5f82015167ffffffffffffffff81111561093657610935610387565b5b610942848285016108d7565b91505092915050565b5f8160e01c9050919050565b5f60033d11156109735760045f5f3e6109705f5161094b565b90505b90565b5f60443d10610a025761098761037a565b60043d036004823e80513d602482011167ffffffffffffffff821117156109af575050610a02565b808201805167ffffffffffffffff8111156109cd5750505050610a02565b80602083010160043d0385018111156109ea575050505050610a02565b6109f98260200185018661042a565b82955050505050505b90565b5f81519050919050565b5f610a1982610a05565b610a238185610719565b9350610a33818560208601610595565b610a3c816103ed565b840191505092915050565b5f6020820190508181035f830152610a5f8184610a0f565b90509291505056fea26469706673582212207b30b03d4678f06ede880f647b2462856f3db57947833ef1e5871e410106e67164736f6c634300081e0033",
					"opcodes": "PUSH1 0x80 PUSH1 0x40 MSTORE CALLVALUE DUP1 ISZERO PUSH1 0xE JUMPI PUSH0 PUSH0 REVERT JUMPDEST POP PUSH2 0xA9D DUP1 PUSH2 0x1C PUSH0 CODECOPY PUSH0 RETURN INVALID PUSH1 0x80 PUSH1 0x40 MSTORE CALLVALUE DUP1 ISZERO PUSH2 0xF JUMPI PUSH0 PUSH0 REVERT JUMPDEST POP PUSH1 0x4 CALLDATASIZE LT PUSH2 0x3F JUMPI PUSH0 CALLDATALOAD PUSH1 0xE0 SHR DUP1 PUSH4 0x654C9BDB EQ PUSH2 0x43 JUMPI DUP1 PUSH4 0x6C74F207 EQ PUSH2 0x73 JUMPI DUP1 PUSH4 0xD9A92E69 EQ PUSH2 0xA3 JUMPI JUMPDEST PUSH0 PUSH0 REVERT JUMPDEST PUSH2 0x5D PUSH1 0x4 DUP1 CALLDATASIZE SUB DUP2 ADD SWAP1 PUSH2 0x58 SWAP2 SWAP1 PUSH2 0x521 JUMP JUMPDEST PUSH2 0xD4 JUMP JUMPDEST PUSH1 0x40 MLOAD PUSH2 0x6A SWAP2 SWAP1 PUSH2 0x5DB JUMP JUMPDEST PUSH1 0x40 MLOAD DUP1 SWAP2 SUB SWAP1 RETURN JUMPDEST PUSH2 0x8D PUSH1 0x4 DUP1 CALLDATASIZE SUB DUP2 ADD SWAP1 PUSH2 0x88 SWAP2 SWAP1 PUSH2 0x62E JUMP JUMPDEST PUSH2 0x18B JUMP JUMPDEST PUSH1 0x40 MLOAD PUSH2 0x9A SWAP2 SWAP1 PUSH2 0x668 JUMP JUMPDEST PUSH1 0x40 MLOAD DUP1 SWAP2 SUB SWAP1 RETURN JUMPDEST PUSH2 0xBD PUSH1 0x4 DUP1 CALLDATASIZE SUB DUP2 ADD SWAP1 PUSH2 0xB8 SWAP2 SWAP1 PUSH2 0x521 JUMP JUMPDEST PUSH2 0x20B JUMP JUMPDEST PUSH1 0x40 MLOAD PUSH2 0xCB SWAP3 SWAP2 SWAP1 PUSH2 0x69B JUMP JUMPDEST PUSH1 0x40 MLOAD DUP1 SWAP2 SUB SWAP1 RETURN JUMPDEST PUSH1 0x60 PUSH0 PUSH0 DUP5 PUSH20 0xFFFFFFFFFFFFFFFFFFFFFFFFFFFFFFFFFFFFFFFF AND DUP5 PUSH1 0x40 MLOAD PUSH2 0xFD SWAP2 SWAP1 PUSH2 0x703 JUMP JUMPDEST PUSH0 PUSH1 0x40 MLOAD DUP1 DUP4 SUB DUP2 PUSH0 DUP7 GAS CALL SWAP2 POP POP RETURNDATASIZE DUP1 PUSH0 DUP2 EQ PUSH2 0x136 JUMPI PUSH1 0x40 MLOAD SWAP2 POP PUSH1 0x1F NOT PUSH1 0x3F RETURNDATASIZE ADD AND DUP3 ADD PUSH1 0x40 MSTORE RETURNDATASIZE DUP3 MSTORE RETURNDATASIZE PUSH0 PUSH1 0x20 DUP5 ADD RETURNDATACOPY PUSH2 0x13B JUMP JUMPDEST PUSH1 0x60 SWAP2 POP JUMPDEST POP SWAP2 POP SWAP2 POP DUP2 PUSH2 0x180 JUMPI PUSH1 0x40 MLOAD PUSH32 0x8C379A000000000000000000000000000000000000000000000000000000000 DUP2 MSTORE PUSH1 0x4 ADD PUSH2 0x177 SWAP1 PUSH2 0x773 JUMP JUMPDEST PUSH1 0x40 MLOAD DUP1 SWAP2 SUB SWAP1 REVERT JUMPDEST DUP1 SWAP3 POP POP POP SWAP3 SWAP2 POP POP JUMP JUMPDEST PUSH0 PUSH0 DUP3 GT PUSH2 0x1CE JUMPI PUSH1 0x40 MLOAD PUSH32 0x8C379A000000000000000000000000000000000000000000000000000000000 DUP2 MSTORE PUSH1 0x4 ADD PUSH2 0x1C5 SWAP1 PUSH2 0x7DB JUMP JUMPDEST PUSH1 0x40 MLOAD DUP1 SWAP2 SUB SWAP1 REVERT JUMPDEST PUSH0 PUSH0 SWAP1 POP PUSH0 PUSH1 0x1 SWAP1 POP JUMPDEST DUP4 DUP2 GT PUSH2 0x201 JUMPI DUP1 DUP3 PUSH2 0x1EB SWAP2 SWAP1 PUSH2 0x826 JUMP JUMPDEST SWAP2 POP PUSH1 0x2 DUP2 PUSH2 0x1FA SWAP2 SWAP1 PUSH2 0x826 JUMP JUMPDEST SWAP1 POP PUSH2 0x1D8 JUMP JUMPDEST POP DUP1 SWAP2 POP POP SWAP2 SWAP1 POP JUMP JUMPDEST PUSH0 PUSH1 0x60 ADDRESS PUSH20 0xFFFFFFFFFFFFFFFFFFFFFFFFFFFFFFFFFFFFFFFF AND PUSH4 0x654C9BDB DUP6 DUP6 PUSH1 0x40 MLOAD DUP4 PUSH4 0xFFFFFFFF AND PUSH1 0xE0 SHL DUP2 MSTORE PUSH1 0x4 ADD PUSH2 0x249 SWAP3 SWAP2 SWAP1 PUSH2 0x868 JUMP JUMPDEST PUSH0 PUSH1 0x40 MLOAD DUP1 DUP4 SUB DUP2 PUSH0 DUP8 GAS CALL SWAP3 POP POP POP DUP1 ISZERO PUSH2 0x287 JUMPI POP PUSH1 0x40 MLOAD RETURNDATASIZE PUSH0 DUP3 RETURNDATACOPY RETURNDATASIZE PUSH1 0x1F NOT PUSH1 0x1F DUP3 ADD AND DUP3 ADD DUP1 PUSH1 0x40 MSTORE POP DUP2 ADD SWAP1 PUSH2 0x284 SWAP2 SWAP1 PUSH2 0x904 JUMP JUMPDEST PUSH1 0x1 JUMPDEST PUSH2 0x36A JUMPI PUSH2 0x293 PUSH2 0x957 JUMP JUMPDEST DUP1 PUSH4 0x8C379A0 SUB PUSH2 0x2F5 JUMPI POP PUSH2 0x2A7 PUSH2 0x976 JUMP JUMPDEST DUP1 PUSH2 0x2B2 JUMPI POP PUSH2 0x2F7 JUMP JUMPDEST PUSH32 0x8C69E2B640CFE0784F7F54B2B09D1E1DDF6773A73A01A049C289170B071129B8 DUP2 PUSH1 0x40 MLOAD PUSH2 0x2E1 SWAP2 SWAP1 PUSH2 0xA47 JUMP JUMPDEST PUSH1 0x40 MLOAD DUP1 SWAP2 SUB SWAP1 LOG1 PUSH0 DUP2 SWAP3 POP SWAP3 POP POP PUSH2 0x373 JUMP JUMPDEST POP JUMPDEST RETURNDATASIZE DUP1 PUSH0 DUP2 EQ PUSH2 0x321 JUMPI PUSH1 0x40 MLOAD SWAP2 POP PUSH1 0x1F NOT PUSH1 0x3F RETURNDATASIZE ADD AND DUP3 ADD PUSH1 0x40 MSTORE RETURNDATASIZE DUP3 MSTORE RETURNDATASIZE PUSH0 PUSH1 0x20 DUP5 ADD RETURNDATACOPY PUSH2 0x326 JUMP JUMPDEST PUSH1 0x60 SWAP2 POP JUMPDEST POP PUSH32 0xB8FE37A7FE126CB6FDDC823787324498B9AA36D4B9E0309B79E3FC3A99003661 DUP2 PUSH1 0x40 MLOAD PUSH2 0x356 SWAP2 SWAP1 PUSH2 0x5DB JUMP JUMPDEST PUSH1 0x40 MLOAD DUP1 SWAP2 SUB SWAP1 LOG1 PUSH0 DUP2 SWAP3 POP SWAP3 POP POP PUSH2 0x373 JUMP JUMPDEST PUSH1 0x1 DUP2 SWAP3 POP SWAP3 POP POP JUMPDEST SWAP3 POP SWAP3 SWAP1 POP JUMP JUMPDEST PUSH0 PUSH1 0x40 MLOAD SWAP1 POP SWAP1 JUMP JUMPDEST PUSH0 PUSH0 REVERT JUMPDEST PUSH0 PUSH0 REVERT JUMPDEST PUSH0 PUSH20 0xFFFFFFFFFFFFFFFFFFFFFFFFFFFFFFFFFFFFFFFF DUP3 AND SWAP1 POP SWAP2 SWAP1 POP JUMP JUMPDEST PUSH0 PUSH2 0x3B4 DUP3 PUSH2 0x38B JUMP JUMPDEST SWAP1 POP SWAP2 SWAP1 POP JUMP JUMPDEST PUSH2 0x3C4 DUP2 PUSH2 0x3AA JUMP JUMPDEST DUP2 EQ PUSH2 0x3CE JUMPI PUSH0 PUSH0 REVERT JUMPDEST POP JUMP JUMPDEST PUSH0 DUP2 CALLDATALOAD SWAP1 POP PUSH2 0x3DF DUP2 PUSH2 0x3BB JUMP JUMPDEST SWAP3 SWAP2 POP POP JUMP JUMPDEST PUSH0 PUSH0 REVERT JUMPDEST PUSH0 PUSH0 REVERT JUMPDEST PUSH0 PUSH1 0x1F NOT PUSH1 0x1F DUP4 ADD AND SWAP1 POP SWAP2 SWAP1 POP JUMP JUMPDEST PUSH32 0x4E487B7100000000000000000000000000000000000000000000000000000000 PUSH0 MSTORE PUSH1 0x41 PUSH1 0x4 MSTORE PUSH1 0x24 PUSH0 REVERT JUMPDEST PUSH2 0x433 DUP3 PUSH2 0x3ED JUMP JUMPDEST DUP2 ADD DUP2 DUP2 LT PUSH8 0xFFFFFFFFFFFFFFFF DUP3 GT OR ISZERO PUSH2 0x452 JUMPI PUSH2 0x451 PUSH2 0x3FD JUMP JUMPDEST JUMPDEST DUP1 PUSH1 0x40 MSTORE POP POP POP JUMP JUMPDEST PUSH0 PUSH2 0x464 PUSH2 0x37A JUMP JUMPDEST SWAP1 POP PUSH2 0x470 DUP3 DUP3 PUSH2 0x42A JUMP JUMPDEST SWAP2 SWAP1 POP JUMP JUMPDEST PUSH0 PUSH8 0xFFFFFFFFFFFFFFFF DUP3 GT ISZERO PUSH2 0x48F JUMPI PUSH2 0x48E PUSH2 0x3FD JUMP JUMPDEST JUMPDEST PUSH2 0x498 DUP3 PUSH2 0x3ED JUMP JUMPDEST SWAP1 POP PUSH1 0x20 DUP2 ADD SWAP1 POP SWAP2 SWAP1 POP JUMP JUMPDEST DUP3 DUP2 DUP4 CALLDATACOPY PUSH0 DUP4 DUP4 ADD MSTORE POP POP POP JUMP JUMPDEST PUSH0 PUSH2 0x4C5 PUSH2 0x4C0 DUP5 PUSH2 0x475 JUMP JUMPDEST PUSH2 0x45B JUMP JUMPDEST SWAP1 POP DUP3 DUP2 MSTORE PUSH1 0x20 DUP2 ADD DUP5 DUP5 DUP5 ADD GT ISZERO PUSH2 0x4E1 JUMPI PUSH2 0x4E0 PUSH2 0x3E9 JUMP JUMPDEST JUMPDEST PUSH2 0x4EC DUP5 DUP3 DUP6 PUSH2 0x4A5 JUMP JUMPDEST POP SWAP4 SWAP3 POP POP POP JUMP JUMPDEST PUSH0 DUP3 PUSH1 0x1F DUP4 ADD SLT PUSH2 0x508 JUMPI PUSH2 0x507 PUSH2 0x3E5 JUMP JUMPDEST JUMPDEST DUP2 CALLDATALOAD PUSH2 0x518 DUP5 DUP3 PUSH1 0x20 DUP7 ADD PUSH2 0x4B3 JUMP JUMPDEST SWAP2 POP POP SWAP3 SWAP2 POP POP JUMP JUMPDEST PUSH0 PUSH0 PUSH1 0x40 DUP4 DUP6 SUB SLT ISZERO PUSH2 0x537 JUMPI PUSH2 0x536 PUSH2 0x383 JUMP JUMPDEST JUMPDEST PUSH0 PUSH2 0x544 DUP6 DUP3 DUP7 ADD PUSH2 0x3D1 JUMP JUMPDEST SWAP3 POP POP PUSH1 0x20 DUP4 ADD CALLDATALOAD PUSH8 0xFFFFFFFFFFFFFFFF DUP2 GT ISZERO PUSH2 0x565 JUMPI PUSH2 0x564 PUSH2 0x387 JUMP JUMPDEST JUMPDEST PUSH2 0x571 DUP6 DUP3 DUP7 ADD PUSH2 0x4F4 JUMP JUMPDEST SWAP2 POP POP SWAP3 POP SWAP3 SWAP1 POP JUMP JUMPDEST PUSH0 DUP2 MLOAD SWAP1 POP SWAP2 SWAP1 POP JUMP JUMPDEST PUSH0 DUP3 DUP3 MSTORE PUSH1 0x20 DUP3 ADD SWAP1 POP SWAP3 SWAP2 POP POP JUMP JUMPDEST DUP3 DUP2 DUP4 MCOPY PUSH0 DUP4 DUP4 ADD MSTORE POP POP POP JUMP JUMPDEST PUSH0 PUSH2 0x5AD DUP3 PUSH2 0x57B JUMP JUMPDEST PUSH2 0x5B7 DUP2 DUP6 PUSH2 0x585 JUMP JUMPDEST SWAP4 POP PUSH2 0x5C7 DUP2 DUP6 PUSH1 0x20 DUP7 ADD PUSH2 0x595 JUMP JUMPDEST PUSH2 0x5D0 DUP2 PUSH2 0x3ED JUMP JUMPDEST DUP5 ADD SWAP2 POP POP SWAP3 SWAP2 POP POP JUMP JUMPDEST PUSH0 PUSH1 0x20 DUP3 ADD SWAP1 POP DUP2 DUP2 SUB PUSH0 DUP4 ADD MSTORE PUSH2 0x5F3 DUP2 DUP5 PUSH2 0x5A3 JUMP JUMPDEST SWAP1 POP SWAP3 SWAP2 POP POP JUMP JUMPDEST PUSH0 DUP2 SWAP1 POP SWAP2 SWAP1 POP JUMP JUMPDEST PUSH2 0x60D DUP2 PUSH2 0x5FB JUMP JUMPDEST DUP2 EQ PUSH2 0x617 JUMPI PUSH0 PUSH0 REVERT JUMPDEST POP JUMP JUMPDEST PUSH0 DUP2 CALLDATALOAD SWAP1 POP PUSH2 0x628 DUP2 PUSH2 0x604 JUMP JUMPDEST SWAP3 SWAP2 POP POP JUMP JUMPDEST PUSH0 PUSH1 0x20 DUP3 DUP5 SUB SLT ISZERO PUSH2 0x643 JUMPI PUSH2 0x642 PUSH2 0x383 JUMP JUMPDEST JUMPDEST PUSH0 PUSH2 0x650 DUP5 DUP3 DUP6 ADD PUSH2 0x61A JUMP JUMPDEST SWAP2 POP POP SWAP3 SWAP2 POP POP JUMP JUMPDEST PUSH2 0x662 DUP2 PUSH2 0x5FB JUMP JUMPDEST DUP3 MSTORE POP POP JUMP JUMPDEST PUSH0 PUSH1 0x20 DUP3 ADD SWAP1 POP PUSH2 0x67B PUSH0 DUP4 ADD DUP5 PUSH2 0x659 JUMP JUMPDEST SWAP3 SWAP2 POP POP JUMP JUMPDEST PUSH0 DUP2 ISZERO ISZERO SWAP1 POP SWAP2 SWAP1 POP JUMP JUMPDEST PUSH2 0x695 DUP2 PUSH2 0x681 JUMP JUMPDEST DUP3 MSTORE POP POP JUMP JUMPDEST PUSH0 PUSH1 0x40 DUP3 ADD SWAP1 POP PUSH2 0x6AE PUSH0 DUP4 ADD DUP6 PUSH2 0x68C JUMP JUMPDEST DUP2 DUP2 SUB PUSH1 0x20 DUP4 ADD MSTORE PUSH2 0x6C0 DUP2 DUP5 PUSH2 0x5A3 JUMP JUMPDEST SWAP1 POP SWAP4 SWAP3 POP POP POP JUMP JUMPDEST PUSH0 DUP2 SWAP1 POP SWAP3 SWAP2 POP POP JUMP JUMPDEST PUSH0 PUSH2 0x6DD DUP3 PUSH2 0x57B JUMP JUMPDEST PUSH2 0x6E7 DUP2 DUP6 PUSH2 0x6C9 JUMP JUMPDEST SWAP4 POP PUSH2 0x6F7 DUP2 DUP6 PUSH1 0x20 DUP7 ADD PUSH2 0x595 JUMP JUMPDEST DUP1 DUP5 ADD SWAP2 POP POP SWAP3 SWAP2 POP POP JUMP JUMPDEST PUSH0 PUSH2 0x70E DUP3 DUP5 PUSH2 0x6D3 JUMP JUMPDEST SWAP2 POP DUP2 SWAP1 POP SWAP3 SWAP2 POP POP JUMP JUMPDEST PUSH0 DUP3 DUP3 MSTORE PUSH1 0x20 DUP3 ADD SWAP1 POP SWAP3 SWAP2 POP POP JUMP JUMPDEST PUSH32 0x45787465726E616C2063616C6C206661696C6564000000000000000000000000 PUSH0 DUP3 ADD MSTORE POP JUMP JUMPDEST PUSH0 PUSH2 0x75D PUSH1 0x14 DUP4 PUSH2 0x719 JUMP JUMPDEST SWAP2 POP PUSH2 0x768 DUP3 PUSH2 0x729 JUMP JUMPDEST PUSH1 0x20 DUP3 ADD SWAP1 POP SWAP2 SWAP1 POP JUMP JUMPDEST PUSH0 PUSH1 0x20 DUP3 ADD SWAP1 POP DUP2 DUP2 SUB PUSH0 DUP4 ADD MSTORE PUSH2 0x78A DUP2 PUSH2 0x751 JUMP JUMPDEST SWAP1 POP SWAP2 SWAP1 POP JUMP JUMPDEST PUSH32 0x6E206D7573742062652067726561746572207468616E20300000000000000000 PUSH0 DUP3 ADD MSTORE POP JUMP JUMPDEST PUSH0 PUSH2 0x7C5 PUSH1 0x18 DUP4 PUSH2 0x719 JUMP JUMPDEST SWAP2 POP PUSH2 0x7D0 DUP3 PUSH2 0x791 JUMP JUMPDEST PUSH1 0x20 DUP3 ADD SWAP1 POP SWAP2 SWAP1 POP JUMP JUMPDEST PUSH0 PUSH1 0x20 DUP3 ADD SWAP1 POP DUP2 DUP2 SUB PUSH0 DUP4 ADD MSTORE PUSH2 0x7F2 DUP2 PUSH2 0x7B9 JUMP JUMPDEST SWAP1 POP SWAP2 SWAP1 POP JUMP JUMPDEST PUSH32 0x4E487B7100000000000000000000000000000000000000000000000000000000 PUSH0 MSTORE PUSH1 0x11 PUSH1 0x4 MSTORE PUSH1 0x24 PUSH0 REVERT JUMPDEST PUSH0 PUSH2 0x830 DUP3 PUSH2 0x5FB JUMP JUMPDEST SWAP2 POP PUSH2 0x83B DUP4 PUSH2 0x5FB JUMP JUMPDEST SWAP3 POP DUP3 DUP3 ADD SWAP1 POP DUP1 DUP3 GT ISZERO PUSH2 0x853 JUMPI PUSH2 0x852 PUSH2 0x7F9 JUMP JUMPDEST JUMPDEST SWAP3 SWAP2 POP POP JUMP JUMPDEST PUSH2 0x862 DUP2 PUSH2 0x3AA JUMP JUMPDEST DUP3 MSTORE POP POP JUMP JUMPDEST PUSH0 PUSH1 0x40 DUP3 ADD SWAP1 POP PUSH2 0x87B PUSH0 DUP4 ADD DUP6 PUSH2 0x859 JUMP JUMPDEST DUP2 DUP2 SUB PUSH1 0x20 DUP4 ADD MSTORE PUSH2 0x88D DUP2 DUP5 PUSH2 0x5A3 JUMP JUMPDEST SWAP1 POP SWAP4 SWAP3 POP POP POP JUMP JUMPDEST PUSH0 PUSH2 0x8A8 PUSH2 0x8A3 DUP5 PUSH2 0x475 JUMP JUMPDEST PUSH2 0x45B JUMP JUMPDEST SWAP1 POP DUP3 DUP2 MSTORE PUSH1 0x20 DUP2 ADD DUP5 DUP5 DUP5 ADD GT ISZERO PUSH2 0x8C4 JUMPI PUSH2 0x8C3 PUSH2 0x3E9 JUMP JUMPDEST JUMPDEST PUSH2 0x8CF DUP5 DUP3 DUP6 PUSH2 0x595 JUMP JUMPDEST POP SWAP4 SWAP3 POP POP POP JUMP JUMPDEST PUSH0 DUP3 PUSH1 0x1F DUP4 ADD SLT PUSH2 0x8EB JUMPI PUSH2 0x8EA PUSH2 0x3E5 JUMP JUMPDEST JUMPDEST DUP2 MLOAD PUSH2 0x8FB DUP5 DUP3 PUSH1 0x20 DUP7 ADD PUSH2 0x896 JUMP JUMPDEST SWAP2 POP POP SWAP3 SWAP2 POP POP JUMP JUMPDEST PUSH0 PUSH1 0x20 DUP3 DUP5 SUB SLT ISZERO PUSH2 0x919 JUMPI PUSH2 0x918 PUSH2 0x383 JUMP JUMPDEST JUMPDEST PUSH0 DUP3 ADD MLOAD PUSH8 0xFFFFFFFFFFFFFFFF DUP2 GT ISZERO PUSH2 0x936 JUMPI PUSH2 0x935 PUSH2 0x387 JUMP JUMPDEST JUMPDEST PUSH2 0x942 DUP5 DUP3 DUP6 ADD PUSH2 0x8D7 JUMP JUMPDEST SWAP2 POP POP SWAP3 SWAP2 POP POP JUMP JUMPDEST PUSH0 DUP2 PUSH1 0xE0 SHR SWAP1 POP SWAP2 SWAP1 POP JUMP JUMPDEST PUSH0 PUSH1 0x3 RETURNDATASIZE GT ISZERO PUSH2 0x973 JUMPI PUSH1 0x4 PUSH0 PUSH0 RETURNDATACOPY PUSH2 0x970 PUSH0 MLOAD PUSH2 0x94B JUMP JUMPDEST SWAP1 POP JUMPDEST SWAP1 JUMP JUMPDEST PUSH0 PUSH1 0x44 RETURNDATASIZE LT PUSH2 0xA02 JUMPI PUSH2 0x987 PUSH2 0x37A JUMP JUMPDEST PUSH1 0x4 RETURNDATASIZE SUB PUSH1 0x4 DUP3 RETURNDATACOPY DUP1 MLOAD RETURNDATASIZE PUSH1 0x24 DUP3 ADD GT PUSH8 0xFFFFFFFFFFFFFFFF DUP3 GT OR ISZERO PUSH2 0x9AF JUMPI POP POP PUSH2 0xA02 JUMP JUMPDEST DUP1 DUP3 ADD DUP1 MLOAD PUSH8 0xFFFFFFFFFFFFFFFF DUP2 GT ISZERO PUSH2 0x9CD JUMPI POP POP POP POP PUSH2 0xA02 JUMP JUMPDEST DUP1 PUSH1 0x20 DUP4 ADD ADD PUSH1 0x4 RETURNDATASIZE SUB DUP6 ADD DUP2 GT ISZERO PUSH2 0x9EA JUMPI POP POP POP POP POP PUSH2 0xA02 JUMP JUMPDEST PUSH2 0x9F9 DUP3 PUSH1 0x20 ADD DUP6 ADD DUP7 PUSH2 0x42A JUMP JUMPDEST DUP3 SWAP6 POP POP POP POP POP POP JUMPDEST SWAP1 JUMP JUMPDEST PUSH0 DUP2 MLOAD SWAP1 POP SWAP2 SWAP1 POP JUMP JUMPDEST PUSH0 PUSH2 0xA19 DUP3 PUSH2 0xA05 JUMP JUMPDEST PUSH2 0xA23 DUP2 DUP6 PUSH2 0x719 JUMP JUMPDEST SWAP4 POP PUSH2 0xA33 DUP2 DUP6 PUSH1 0x20 DUP7 ADD PUSH2 0x595 JUMP JUMPDEST PUSH2 0xA3C DUP2 PUSH2 0x3ED JUMP JUMPDEST DUP5 ADD SWAP2 POP POP SWAP3 SWAP2 POP POP JUMP JUMPDEST PUSH0 PUSH1 0x20 DUP3 ADD SWAP1 POP DUP2 DUP2 SUB PUSH0 DUP4 ADD MSTORE PUSH2 0xA5F DUP2 DUP5 PUSH2 0xA0F JUMP JUMPDEST SWAP1 POP SWAP3 SWAP2 POP POP JUMP INVALID LOG2 PUSH5 0x6970667358 0x22 SLT KECCAK256 PUSH28 0x30B03D4678F06EDE880F647B2462856F3DB57947833EF1E5871E4101 MOD DUPN 0x71 PUSH5 0x736F6C6343 STOP ADDMOD 0x1E STOP CALLER "
				},
				"gasEstimates": {
					"creation": {
						"codeDepositCost": "543400",
						"executionCost": "573",
						"totalCost": "543973"
					},
					"external": {
						"externalCall(address,bytes)": "infinite",
						"safeExternalCall(address,bytes)": "infinite",
						"sumOddNumbers(uint256)": "infinite"
					}
				},
				"methodIdentifiers": {
					"externalCall(address,bytes)": "654c9bdb",
					"safeExternalCall(address,bytes)": "d9a92e69",
					"sumOddNumbers(uint256)": "6c74f207"
				}
			},
			"storageLayout": {
				"storage": [],
				"types": null
			},
			"userdoc": {
				"kind": "user",
				"methods": {},
				"version": 1
			}
		}
	}
}