{
	"data": {
		"bytecode": {
			"linkReferences": {},
			"object": "6080604052348015600e575f5ffd5b5061011e8061001c5f395ff3fe6080604052348015600e575f5ffd5b50600436106025575f3560e01c8062819439146029575b5f5ffd5b602f6046565b604051603d949392919060ad565b60405180910390f35b5f5f5f5f4393504292504191503a905090919293565b5f819050919050565b606c81605c565b82525050565b5f73ffffffffffffffffffffffffffffffffffffffff82169050919050565b5f6099826072565b9050919050565b60a7816091565b82525050565b5f60808201905060be5f8301876065565b60c960208301866065565b60d4604083018560a0565b60df60608301846065565b9594505050505056fea26469706673582212207fc0eb1b5e2d727799b9c2b149d938ba3d081af9394f32a2bdc37e0955c7c32c64736f6c634300081e0033",
			"opcodes": "PUSH1 0x80 PUSH1 0x40 MSTORE CALLVALUE DUP1 ISZERO PUSH1 0xE JUMPI PUSH0 PUSH0 REVERT JUMPDEST POP PUSH2 0x11E DUP1 PUSH2 0x1C PUSH0 CODECOPY PUSH0 RETURN INVALID PUSH1 0x80 PUSH1 0x40 MSTORE CALLVALUE DUP1 ISZERO PUSH1 0xE JUMPI PUSH0 PUSH0 REVERT JUMPDEST POP PUSH1 0x4 CALLDATASIZE LT PUSH1 0x25 JUMPI PUSH0 CALLDATALOAD PUSH1 0xE0 SHR DUP1 PUSH3 0x819439 EQ PUSH1 0x29 JUMPI JUMPDEST PUSH0 PUSH0 REVERT JUMPDEST PUSH1 0x2F PUSH1 0x46 JUMP JUMPDEST PUSH1 0x40 MLOAD PUSH1 0x3D SWAP5 SWAP4 SWAP3 SWAP2 SWAP1 PUSH1 0xAD JUMP JUMPDEST PUSH1 0x40 MLOAD DUP1 SWAP2 SUB SWAP1 RETURN JUMPDEST PUSH0 PUSH0 PUSH0 PUSH0 NUMBER SWAP4 POP TIMESTAMP SWAP3 POP COINBASE SWAP2 POP GASPRICE SWAP1 POP SWAP1 SWAP2 SWAP3 SWAP4 JUMP JUMPDEST PUSH0 DUP2 SWAP1 POP SWAP2 SWAP1 POP JUMP JUMPDEST PUSH1 0x6C DUP2 PUSH1 0x5C JUMP JUMPDEST DUP3 MSTORE POP POP JUMP JUMPDEST PUSH0 PUSH20 0xFFFFFFFFFFFFFFFFFFFFFFFFFFFFFFFFFFFFFFFF DUP3 AND SWAP1 POP SWAP2 SWAP1 POP JUMP JUMPDEST PUSH0 PUSH1 0x99 DUP3 PUSH1 0x72 JUMP JUMPDEST SWAP1 POP SWAP2 SWAP1 POP JUMP JUMPDEST PUSH1 0xA7 DUP2 PUSH1 0x91 JUMP JUMPDEST DUP3 MSTORE POP POP JUMP JUMPDEST PUSH0 PUSH1 0x80 DUP3 ADD SWAP1 POP PUSH1 0xBE PUSH0 DUP4 ADD DUP8 PUSH1 0x65 JUMP JUMPDEST PUSH1 0xC9 PUSH1 0x20 DUP4 ADD DUP7 PUSH1 0x65 JUMP JUMPDEST PUSH1 0xD4 PUSH1 0x40 DUP4 ADD DUP6 PUSH1 0xA0 JUMP JUMPDEST PUSH1 0xDF PUSH1 0x60 DUP4 ADD DUP5 PUSH1 0x65 JUMP JUMPDEST SWAP6 SWAP5 POP POP POP POP POP JUMP INVALID LOG2 PUSH5 0x6970667358 0x22 SLT KECCAK256 PUSH32 0xC0EB1B5E2D727799B9C2B149D938BA3D081AF9394F32A2BDC37E0955C7C32C64 PUSH20 0x6F6C634300081E00330000000000000000000000 "
		},
		"gasEstimates": {
			"creation": {
				"codeDepositCost": "57200",
				"executionCost": "103",
				"totalCost": "57303"
			},
			"external": {
				"getBlockInfo()": "infinite"
			}
		},
		"methodIdentifiers": {
			"getBlockInfo()": "00819439"
		}
	},
	"abi": [
		{
			"inputs": [],
			"name": "getBlockInfo",
			"outputs": [
				{
					"internalType": "uint256",
					"name": "blockNumber",
					"type": "uint256"
				},
				{
					"internalType": "uint256",
					"name": "blockTimestamp",
					"type": "uint256"
				},
				{
					"internalType": "address",
					"name": "miner",
					"type": "address"
				},
				{
					"internalType": "uint256",
					"name": "gasPrice",
					"type": "uint256"
				}
			],
			"stateMutability": "view",
			"type": "function"
		}
	]
}